:100000000C94DE010C9406020C9406020C94060279
:100010000C9406020C9406020C9406020C94060240
:100020000C9406020C9406020C9406020C94060230
:100030000C9406020C9406020C9406020C94060220
:100040000C94E7120C9406020C946C140C949E14FD
:100050000C9406020C9406020C9406020C94060200
:100060000C9406020C940602000000000000000040
:1000700000005F0000000000000007000700000013
:1000800000147F147F14000000242A7F2A1200002D
:100090000023130864620000003649552250000016
:1000A0000000050300000000001C224100000000C9
:1000B0000041221C0000000000082A1C2A08000041
:1000C0000008083E0808000000A0600000000000D2
:1000D0000008080808080000006060000000000038
:1000E0000020100804020000003E5149453E000077
:1000F0000000427F40000000006251494946000074
:100100000022414949360000001814127F100000F7
:100110000027454545390000003C4A494930000068
:100120000001710905030000003649494936000005
:1001300000064949291E0000000036360000000074
:100140000000AC6C00000000000814224100000018
:1001500000141414141400000041221408000000BC
:10016000000201510906000000324979413E0000B9
:10017000007E0909097E0000007F494949360000D8
:10018000003E414141220000007F4141221C00000D
:10019000007F494949410000007F09090901000029
:1001A000003E414151720000007F0808087F0000B6
:1001B0000000417F41000000002040413F0100005D
:1001C000007F081422410000007F404040400000B2
:1001D000007F020C027F0000007F0408107F0000F7
:1001E000003E4141413E0000007F09090906000030
:1001F000003E4151215E0000007F091929460000A0
:1002000000264949493200000001017F0101000038
:10021000003F4040403F0000001F2040201F0000E2
:10022000003F4038403F00000063140814630000A2
:1002300000030478040300000061514945430000B5
:10024000007F41410000000000020408102000006F
:100250000041417F00000000000402010204000090
:100260000080808080800000000102040000000007
:100270000020545454780000007F48444438000063
:10028000003844442800000000384444487F0000FF
:10029000003854545418000000087E090200000081
:1002A0000018A4A4A47C0000007F080404780000C7
:1002B00000007D00000000000080847D0000000040
:1002C000007F10284400000000417F400000000033
:1002D000007C041804780000007C08047C00000006
:1002E000003844443800000000FC242418000000BA
:1002F00000182424FC00000000007C08040000001A
:10030000004854542400000000047F440000000012
:10031000003C40407C000000001C2040201C0000ED
:10032000003C4030403C00000044281028440000BD
:10033000001CA0A07C000000004464544C44000059
:10034000000836410000000000007F0000000000AF
:100350000041360800000000000201010201000017
:100360000002050502000000000000080002010074
:100370000003040700000000000000000102040860
:1003800010204080010204081020010204081020FF
:10039000040404040404040402020202020203032B
:1003A0000303030300000000250028002B000000C9
:1003B0000000240027002A004D12CE1411241FBE75
:1003C000CFEFD8E0DEBFCDBF12E0A0E0B1E0ECE8B7
:1003D000F8E302C005900D92A233B107D9F723E0EC
:1003E000A2E3B2E001C01D92AE34B207E1F713E020
:1003F000CCEBD3E004C02297FE010E945919C83B00
:10040000D107C9F70E9412150C94441C0C940000EB
:100410000F93FC0140832283018363830F9108952E
:10042000BF92CF92DF92EF92FF920F931F93CF93E1
:10043000DF93B82E34E0C32ED12C00E014E0C0E0EE
:10044000D0E0E12CF12C8B2D0E94B713C817D907EF
:100450000CF4EC01801791070CF48C01E80EF91EE6
:1004600081E0C81AD10879F7C701801B910B8C1B5A
:100470009D0B97FD019695958795DF91CF911F91E3
:100480000F91FF90EF90DF90CF90BF9008952F9243
:100490003F924F925F926F927F928F929F92AF9214
:1004A000BF92CF92DF92EF92FF920F931F93CF9361
:1004B000DF93CDB7DEB728970FB6F894DEBF0FBE37
:1004C000CDBF8C01FC01A381B0E0FD01E057FC4FE2
:1004D000C490FC018081682F70E0FB01E057FC4F65
:1004E000E490F801428150E0FA01E057FC4FA490FB
:1004F000F801218130E0F901E057FC4F6490FD01E3
:10050000E458FC4F3490FB01E458FC4F9490FA01FE
:10051000E458FC4FB490F901E458FC4F249060E09B
:100520000E94FD1360E0F80181810E94FD13F12C0F
:10053000EE0CFF1C97012C553C4F7901F901A59158
:10054000B4918C91392D30953F8383238C93712CFA
:10055000660C771CC3018C559C4F3C01FC01A59196
:10056000B4918C91922D909589238C9361E0F80140
:1005700083810E94FD1361E0F80182810E94FD13D6
:10058000D12CCC0CDD1C96012C553C4F6901F90196
:10059000A591B4918C9183298C93EA2DF0E0EE0F14
:1005A000FF1FEC55FC4FA591B4918C91B0948B2119
:1005B0008C93F801808190E00E9410025C01F801A8
:1005C000808190E00E9410028A159B0524F4250189
:1005D000481A590A03C02C014A185B08A80EB91E14
:1005E00060E0F80183810E94FD1360E0F8018281E0
:1005F0000E94FD13F601A591B4918C913094832152
:100600008C9361E0F80180810E94FD13F701A591B0
:10061000B4918C9189298C9361E0F80181810E94C9
:10062000FD13F801828190E00E9410024C01F80154
:10063000828190E00E941002881599052CF49401A3
:10064000281B390BC90102C08819990903972CF49A
:1006500021E033E0431651040CF020E0880C991C93
:1006600061E0F801838128870E94FD13F601A591BE
:10067000B4918C9183218C93F301A591B4918C91C9
:1006800082298C93F701A591B4918C913F818323AA
:100690008C9360E0F80180810E94FD13F801828153
:1006A0000E94B7137C01F80180810E94B71328854E
:1006B000222309F444C0BC01882777FD8095982F38
:1006C0000E94FD172B013C01B701882777FD80951B
:1006D000982F0E94FD179B01AC01C301B2010E943B
:1006E000621720E030E040E85FE30E94FD166B01F6
:1006F0007C018EEF97E08A199B0997FD0196BC015A
:1007000075956795882777FD8095982F0E94FD172E
:100710009B01AC01C701B6010E94891820E030E0BE
:1007200046E953E40E94891820E030E040E85AE3AB
:100730000E9489180E94CA17E62F872F02C0E0E0A6
:1007400080E0BA82A9829C828B82ED838E832A2DDF
:100750003A81482D5C816E2F782F80E090E02896BA
:100760000FB6F894DEBF0FBECDBFDF91CF911F91C2
:100770000F91FF90EF90DF90CF90BF90AF909F9040
:100780008F907F906F905F904F903F902F90089543
:10079000CF93CFB7F89480913202811127C0EAE954
:1007A000F3E08491E6E8F3E09491E82FF0E0EE0FB7
:1007B000FF1FE255FC4FA591B4918C91892321F440
:1007C00061E08AE00E94361461E08AE00E94FD1335
:1007D0008CB580618CBD8CB580648CBD61E08DE092
:1007E0000E94FD1361E08BE00E94FD1380913202B4
:1007F0008F5F80933202CFBFCF9108958EBD0000EE
:100800000DB407FEFDCF8EB50895569A5E98559AA1
:100810005D980E94FE03559A5D9A0895569A5E9AD5
:10082000559A5D980E94FE03559A5D9A0895CF935C
:10083000C82F569A5E9A559A5D98892F0E94FE039A
:100840008C2F0E94FE03559A5D9ACF910895CF9206
:10085000DF92EF92FF920F931F93CF93DF9300D01D
:1008600000D000D0CDB7DEB7198283E98A8381E456
:100870008B838E010F5F1F4FCE0104967C0181E1B7
:10088000D82ECC24C39489ED0E9405048D2D0E949E
:100890000E04569A5E98559A5D9883ED0E94FE0369
:1008A000569A5E9A80E00E94FE03559A5D9AF7017F
:1008B00081937F01F80191918F018913C12CD39409
:1008C000F4E1DF12E0CFC1101DC063E671E081EBFF
:1008D00092E00E945F157E0187E0E80EF11C8E0118
:1008E0000C5F1F4FF80161918F0140E150E081EBF7
:1008F00092E00E94CB150E151F05A1F781EB92E047
:100900000E9461158C2D26960FB6F894DEBF0FBE9F
:10091000CDBFDF91CF911F910F91FF90EF90DF90AE
:10092000CF9008950F931F93CF93DF938B01EA012C
:100930008AE20E940504C8010E941704CE01DF91DB
:10094000CF911F910F910C9417040F931F93CF9386
:10095000DF938B01EA018BE20E940504C8010E942B
:100960001704CE01DF91CF911F910F910C941704C2
:100970006F927F928F929F92AF92BF92CF92DF92AF
:10098000EF92FF920F931F93CF93DF937E2C6F2CE8
:100990004617570730F464277527462757276427DB
:1009A00075270217130730F4202731270227132752
:1009B00020273127FB01603F710510F0EFEEF0E0DA
:1009C000403F510510F04FEE50E0E901203481E046
:1009D000380710F0CFE3D1E0003481E0180710F0C1
:1009E0000FE311E0DA011196AE1BBF0B98012F5FE8
:1009F0003F4F2C1B3D0B0E943D194B015C01BF0179
:100A000083E392E00E949204A801BE0183E392E096
:100A10000E94A5048CE20E940504569A5E9A559A9B
:100A20005D98C12CD12C7601C814D904EA04FB04CA
:100A300061F0862D0E94FE03872D0E94FE038FEF3A
:100A4000C81AD80AE80AF80AEFCF559A5D9ADF91DA
:100A5000CF911F910F91FF90EF90DF90CF90BF90BB
:100A6000AF909F908F907F906F900895CF93DF937A
:100A70004FEE50E060E070E083E392E00E94920469
:100A80004FE351E060E070E083E392E00E94A50450
:100A90008CE20E940504569A5E9A559A5D98C0E0D1
:100AA000D6E980E00E94FE0380E00E94FE0380E021
:100AB0000E94FE0380E00E94FE03219791F7559A61
:100AC0005D9ADF91CF910895CF93DF93EC010E945F
:100AD000C803559A5D9A569A5E9ACE010E942704E1
:100AE000CE010E942704CE010E94270464EF71E02A
:100AF00080E090E00E94541381E00E94050468ECBD
:100B000070E080E090E00E9454138FEC0E94050496
:100B100080E00E940E048BE80E940E0480E30E9495
:100B20000E048DEE0E94050487E60E940E0483E009
:100B30000E940E0482E10E940E0481E80E940E04CD
:100B400088EE0E94050485E80E940E0480E10E9460
:100B50000E048AE70E940E048BEC0E94050489E3D0
:100B60000E940E048CE20E940E0480E00E940E049B
:100B700084E30E940E0482E00E940E0487EF0E942C
:100B8000050480E20E940E048AEE0E94050480E0C3
:100B90000E940E0480E00E940E0480EC0E94050476
:100BA0008BE10E940E0481EC0E94050480E10E940A
:100BB0000E0485EC0E9405048FE30E940E048CE372
:100BC0000E940E0487EC0E94050487EB0E940E042D
:100BD00086E30E94050488E00E940E048AE30E94D6
:100BE000050485E50E940E0481EB0E94050480E067
:100BF0000E940E048BE10E940E0486EB0E94050405
:100C00008AE00E940E0482EA0E940E0482EF0E9493
:100C1000050480E00E940E0486E20E94050481E043
:100C20000E940E0480EE0E9405048FE00E940E04D4
:100C30008AE20E940E0488E20E940E0488E00E946C
:100C40000E048EE00E940E0488E00E940E0484E5EB
:100C50000E940E0489EA0E940E0483E40E940E049E
:100C60008AE00E940E048FE00E940E0480E00E9441
:100C70000E0480E00E940E0480E00E940E0480E0DA
:100C80000E940E0481EE0E94050480E00E940E0482
:100C900085E10E940E0487E10E940E0487E00E9415
:100CA0000E0481E10E940E0486E00E940E048BE295
:100CB0000E940E0486E50E940E048CE30E940E043E
:100CC00085E00E940E0480E10E940E048FE00E94E5
:100CD0000E048FE30E940E048FE30E940E048FE047
:100CE0000E940E0481E10E94050468E770E080E044
:100CF00090E00E94541389E20E940504CE01DF9126
:100D0000CF910C943605EF92FF920F931F93FA0147
:100D1000A9010E0F1F1F460F571F9F010E94B80405
:100D20001F910F91FF90EF9008952F923F924F9255
:100D30005F926F927F928F929F92AF92BF92CF926B
:100D4000DF92EF92FF920F931F93CF93DF93CDB774
:100D5000DEB728970FB6F894DEBF0FBECDBF9A83DB
:100D60008983322E232E5801FC82EB8280EE860F7F
:100D7000803608F06FE388E0689F300111242A0173
:100D8000C12CD12CD301A859B0403D01F301EC0D89
:100D9000FD1DE4913F822886812C912C8E2F90E0BE
:100DA0009E838D838D819E81082C02C095958795A9
:100DB0000A94E2F780FF0BC0EB80FC80850195016F
:100DC0004F815885B20189819A810E9483069FEFE5
:100DD000891A990AAF81B885AA0DBB1DB887AF8360
:100DE000B8E08B169104F1F6EFEFCE1ADE0A4A0C4A
:100DF0005B1CF8E0CF16D10449F628960FB6F8949C
:100E0000DEBF0FBECDBFDF91CF911F910F91FF903D
:100E1000EF90DF90CF90BF90AF909F908F907F909A
:100E20006F905F904F903F902F9008952F923F9238
:100E30004F925F926F927F928F929F92AF92BF92EA
:100E4000CF92DF92EF92FF920F931F93CF93DF9396
:100E50005C01EA0149016801370186E0809F1001C9
:100E6000819F300C11242B01F20161912F01662327
:100E700069F0730186019401AE01C5010E949506D7
:100E8000CF3ED10588F7C20DD31DEECFDF91CF91B4
:100E90001F910F91FF90EF90DF90CF90BF90AF9098
:100EA0009F908F907F906F905F904F903F902F908A
:100EB0000895CF92DF92EF92FF920F931F93CF93FB
:100EC000DF93EC017A016901AB01420F531F0E94CD
:100ED0009204A701B701CE010E94A5048CE20E94F2
:100EE0000504C0E0D0E0CC15DD0529F0C8010E9462
:100EF00017042196F8CFDF91CF911F910F91FF90AA
:100F0000EF90DF90CF900895CF92DF92EF92FF9213
:100F10000F931F93CF93DF93EC016A017901AB012B
:100F20000E949204A6014E0D5F1DB601CE010E94E3
:100F3000A5048CE20E940504C0E0D0E0CE15DF05D8
:100F400029F0C8010E9417042196F8CFDF91CF91B4
:100F50001F910F91FF90EF90DF90CF9008956F92C7
:100F60007F928F929F92AF92BF92CF92DF92EF9239
:100F7000FF920F931F93CF93DF93EC015B016A0104
:100F80004901380187010E945907A601460D571DE6
:100F90009401B501CE010E9459079301A601B50144
:100FA000CE010E948407B501680D791D9301A60149
:100FB000CE010E948407DF91CF911F910F91FF9086
:100FC000EF90DF90CF90BF90AF909F908F907F90E9
:100FD0006F9008952F923F924F925F926F927F92FF
:100FE0008F929F92AF92BF92CF92DF92EF92FF9239
:100FF0000F931F93CF93DF93CDB7DEB761970FB6F3
:10100000F894DEBF0FBECDBF3C011A012B01590180
:101010001E870D87470119821A821B821C8276E087
:10102000FE013596DF01272F1D922A95E9F757FE1D
:1010300023C0760184012D853E85A5016DE2798B63
:101040000E9495065094409430942094211C311CA9
:10105000411C511C79893FEEA316B10450F4789DD0
:10106000C001799D900D1124A80EB91E81E08C87D6
:1010700009C091E09C8706C0211431044104510449
:1010800041F01C8680E01AE0E12EF12C00E010E037
:101090000AC0760184012D853E85A50160E30E948A
:1010A000950681E042C0A1E0A80FAB87E1E0F0E047
:1010B000EC0FFD1FE80FF11DF88BEF87C201B101A6
:1010C000A80197010E941E19AF85B8896C93190178
:1010D0002A01211431044104510411F08B85E3CF1E
:1010E0003B84BC853B0E86E0889D2001899D500C89
:1010F00011249B859923C1F0FE012B85E20FF11D80
:101100006081605D760184012D853E85A501C30166
:101110000E9495063FEEA316B10410F4A40CB51C72
:101120008B8581508B87E5CF832D61960FB6F89420
:10113000DEBF0FBECDBFDF91CF911F910F91FF900A
:10114000EF90DF90CF90BF90AF909F908F907F9067
:101150006F905F904F903F902F9008952F923F9205
:101160004F925F926F927F928F929F92AF92BF92B7
:10117000CF92DF92EF92FF920F931F93CF93DF9363
:1011800000D000D0CDB7DEB71C012A013B014801D9
:101190005901C701B6012CE330E040E050E00E9465
:1011A000FC1829833A834B835C83C501B4012CE38B
:1011B00030E040E050E00E94FC18B90189819A813A
:1011C000892B51F089819A81AB81BC81AA27BB27E9
:1011D000880E991EAA1EBB1E672B41F0DA01C901B9
:1011E000AA27BB27480E591E6A1E7B1EACE3B0E03F
:1011F000A50194010E944C194B015C01C701B60185
:101200002CE330E040E050E00E94FC18860E971E70
:10121000A81EB91EA0E1BEE0A30192010E944C19D4
:10122000860E971EA81EB91EF101808E918EA28E89
:10123000B38E848E958EA68EB78E11A20F900F90CE
:101240000F900F90DF91CF911F910F91FF90EF9032
:10125000DF90CF90BF90AF909F908F907F906F90D6
:101260005F904F903F902F9008954F925F926F92B2
:101270007F928F929F92AF92BF92CF92DF92EF9226
:10128000FF92CF93DF932A01E901FC01808C918CBE
:10129000A28CB38C6B01E12CF12CC501B40120E1CF
:1012A0003EE040E050E00E94FC18C216D306E4067F
:1012B000F50619F5612C712C8CE3C82ED12CE12C8C
:1012C000F12CC501B401A70196010E94FC184B0145
:1012D0005C01CA01B901A70196010E94FC184616DB
:1012E00057066806790649F4AE0160E070E081E0D7
:1012F000481559056A057B0509F080E0DF91CF911B
:10130000FF90EF90DF90CF90BF90AF909F908F9025
:101310007F906F905F904F9008954F925F926F9281
:101320007F928F929F92AF92BF92CF92DF92EF9275
:10133000FF92CF93DF93EC011BA289A181115FC0C3
:101340008AA181115CC00E9431136B017C01688B02
:10135000798B8A8B9B8B8C889D88AE88BF884090C8
:101360000401509005016090060170900701AB01E7
:10137000BC01481959096A097B09441655066606D5
:101380007706E8F58CA1488D598D6A8D7B8D882371
:1013900029F04F5F5F4F6F4F7F4F04C0415051099D
:1013A00061097109488F598F6A8F7B8F91E09BA3E8
:1013B000811109C0488D598D6A8D7B8D452B462B37
:1013C000472B09F43FC0288539854C815D816881B0
:1013D0007981CE010E943509811134C0840C951C9D
:1013E000A61CB71C8C8A9D8AAE8ABF8AC814D904F1
:1013F000EA04FB0420F41C8A1D8A1E8A1F8A8AA123
:10140000882371F00E943113CC88DD88EE88FF8834
:10141000C60ED71EE81EF91ECC8ADD8AEE8AFF8A28
:1014200089A191E08927DF91CF91FF90EF90DF9024
:10143000CF90BF90AF909F908F907F906F905F9074
:101440004F90089581E089A3C9CFCF92DF92EF92A8
:10145000FF920F931F93CF93DF9361E083E00E948D
:10146000FD1361E082E00E94FD1360E083E00E94D2
:10147000361460E082E00E943614579A5F9A83E344
:1014800092E00E94640580E090E00E94511BC82F0A
:10149000D0E0D0938F02C0938E0281E090E00E9452
:1014A000511B90E0909361018093600182E090E095
:1014B0000E94511B90E090938B0280938A0283E0FC
:1014C00090E00E94511B90E090935F0180935E0139
:1014D00086E08C9FF0018D9FF00D1124E85FFE4F98
:1014E000C480D580EE24D7FCE094FE2C02811381C9
:1014F000222717FD2095322F40815181662757FD05
:101500006095762F89E592E00E94AE08CBE7D2E0A5
:1015100011E0188389E592E00E948D0980917102A3
:1015200090917202A0917302B0917402AC01BD015E
:1015300022E076956795579547952A95D1F7841BB4
:10154000950BA60BB70B80934C0290934D02A09382
:101550004E02B0934F028093500290935102A09399
:101560005202B0935302109255021093560284E334
:1015700092E00E948D0918820E94311360936D02DF
:1015800070936E0280936F029093700289E592E0EF
:10159000DF91CF911F910F91FF90EF90DF90CF904F
:1015A0000C948D094F925F926F927F928F929F92CF
:1015B000AF92BF92CF92DF92EF92FF920F931F9361
:1015C000CF93DF9300D000D000D0CDB7DEB78EE749
:1015D00092E00E94470229833A834B835C836D83A8
:1015E0007E838B809C8069817A81882777FD8095B6
:1015F000982F1F921F921F9220EF2F93A12CB12C96
:10160000650114EFE12E16E0F12E00E010E028EE67
:1016100030E040E050E00E94D2152B013C01B401C3
:10162000882777FD8095982F1F921F9221E02F9396
:1016300020E42F9312E2E12E17E0F12E00E010E0FB
:1016400026EA30E040E050E00E94D2150FB6F89450
:10165000DEBF0FBECDBF2D813E812B303105E4F0C2
:1016600031E8431A51082EE542165104A8F4665D8C
:1016700071096E35710580F410928902109288020A
:1016800010928702109286021092850210928402B4
:1016900010928D0210928C0226960FB6F894DEBF3F
:1016A0000FBECDBFDF91CF911F910F91FF90EF90B3
:1016B000DF90CF90BF90AF909F908F907F906F9072
:1016C0005F904F900895EF92FF920F931F93E12C3C
:1016D000F12C09E610E029E630E040ED50E063E04F
:1016E00070E083E392E00E948306E12C58EFF52E30
:1016F0000FE510E02FE530E045ED50E060E870E0E8
:1017000083E392E00E948306E12CF12C02E010E0DA
:101710002AEF30E04AE850E06EE971E083E392E0BE
:101720000E9416071F910F91FF90EF9008958F92DE
:101730009F92AF92BF92CF92DF92EF92FF920F9360
:101740001F9380918E0290918F0220918C02309194
:101750008D02820F931F26E0289FF001299FF00D34
:101760001124E85FFE4FC480D580EE24D7FCE094BE
:10177000FE2C02811381222717FD2095322F4081F4
:101780005181662757FD6095762F89E592E00E948A
:10179000AE0881E080937B02809171029091720289
:1017A000A0917302B09174028F319105A105B1052A
:1017B00038F020915E0130915F012130310589F0D0
:1017C00010924C0210924D0210924E0210924F0253
:1017D0001092500210925102109252021092530233
:1017E0001DC0AC01BD01E2E0769567955795479520
:1017F000EA95D1F7841B950BA60BB70B80934C028F
:1018000090934D02A0934E02B0934F0280935002EA
:1018100090935102A0935202B0935302109255023A
:1018200081E080935602E12CF12C00E411E020EFDE
:1018300030E040E050E060E070E083E392E00E943E
:101840008306E12CF8EFFF2E04E610E020EF30E0F5
:1018500042E350E060E070E083E392E00E948306A0
:10186000C0907102D0907202E0907302F090740206
:10187000ACE38A2E912CA12CB12CC701B601A50195
:1018800094010E94FC189F938F937F936F93CA01DA
:10189000B901A50194010E94FC189F938F937F9337
:1018A0006F93C701B60120E13EE040E050E00E94A6
:1018B000FC185F934F933F932F9384EA91E09F939B
:1018C0008F938CE992E09F938F930E945D1981E042
:1018D00090E0909389028093880210928702109280
:1018E0008602109285021092840210927B020E945E
:1018F000311360936D0270936E0280936F02909328
:1019000070028DB79EB740960FB6F8949EBF0FBE7B
:101910008DBF1F910F91FF90EF90DF90CF90BF9000
:10192000AF909F908F900C94630B8F929F92AF9289
:10193000BF92CF92DF92EF92FF920F931F9384E3B7
:1019400092E00E948D0980915702882309F468C0B3
:10195000E12C18EFF12E02E010E02AE030E04AE03E
:1019600050E066EB71E083E392E00E94160704E624
:1019700010E020EF30E042E350E060E070E083E30D
:1019800092E00E948306C0904C02D0904D02E090FD
:101990004E02F0904F020CE3802E912CA12CB12C22
:1019A000C701B601A50194010E94FC189F938F9373
:1019B0007F936F93CA01B901A50194010E94FC189D
:1019C0009F938F937F936F93C701B60120E13EE011
:1019D00040E050E00E94FC185F934F933F932F9399
:1019E00084EA91E09F938F9380E992E09F938F9395
:1019F0000E945D19E12CF12C04E010E026E430E0B7
:101A00004AE050E060E972E083E392E00E9416074A
:101A10008DB79EB740960FB6F8949EBF0FBE8DBF90
:101A200020E030E040E050E060E070E084E392E0ED
:101A30000E943509882309F445C083E392E00E949F
:101A40003605E12CB8EFFB2E03E010E026E430E091
:101A50004AE050E061EC71E083E392E00E941607F7
:101A600060915C0170915D01882777FD8095982FCA
:101A70000E94541383E392E00E943605109287027D
:101A80001092860280918C0290918D020196909323
:101A90008D0280938C022091600130916101821748
:101AA000930764F41F910F91FF90EF90DF90CF9018
:101AB000BF90AF909F908F900C94970B10928D02D7
:101AC00010928C021F910F91FF90EF90DF90CF90BA
:101AD000BF90AF909F908F9008958F929F92AF92FA
:101AE000BF92CF92DF92EF92FF920F931F9361E02C
:101AF00082E00E94361489E592E00E948D0980916F
:101B00007C02882309F468C0E12C88EFF82E02E0FB
:101B100010E02AE030E04AE050E06EEC71E083E350
:101B200092E00E94160704E610E020EF30E042E366
:101B300050E060E070E083E392E00E948306C09092
:101B40007102D0907202E0907302F09074029CE3F4
:101B5000892E912CA12CB12CC701B601A5019401AD
:101B60000E94FC189F938F937F936F93CA01B901D2
:101B7000A50194010E94FC189F938F937F936F930C
:101B8000C701B60120E13EE040E050E00E94FC18B1
:101B90005F934F933F932F9384EA91E09F938F93AA
:101BA0008CE992E09F938F930E945D19E12CF12CB8
:101BB00004E010E026E430E04AE050E06CE972E036
:101BC00083E392E00E9416078DB79EB740960FB64A
:101BD000F8949EBF0FBE8DBF20E030E040E050E0A3
:101BE00060E070E089E592E00E943509882371F198
:101BF000109289021092880283E392E00E943605D7
:101C000060E082E00E943614109256020E94311366
:101C1000609348027093490280934A0290934B026A
:101C200084E392E00E948D0981E090E09093870226
:101C3000809386021F910F91FF90EF90DF90CF90DD
:101C4000BF90AF909F908F900C94630B1F910F915A
:101C5000FF90EF90DF90CF90BF90AF909F908F90CC
:101C6000089560918E0280E090E00E94591B60917F
:101C7000600181E090E00E94591B60918A0282E03D
:101C800090E00E94591B60915E0183E090E00C940B
:101C9000591B2F923F924F925F926F927F928F9239
:101CA0009F92AF92BF92CF92DF92EF92FF920F93EB
:101CB0001F93CF93DF93CDB7DEB728970FB6F89475
:101CC000DEBF0FBECDBF8EE792E00E9447022983A0
:101CD0003A834B835C836D837E836B807C808D81B4
:101CE0009E8198878F8369817A81882777FD809587
:101CF000982F1F921F921F9220EF2F93A12CB12C8F
:101D0000650114EFE12E16E0F12E00E010E028EE60
:101D100030E040E050E00E94D2151B012C01B301DD
:101D2000882777FD8095982F1F921F9221E02F938F
:101D300020E42F9312E2E12E17E0F12E00E010E0F4
:101D400026EA30E040E050E00E94D2154B015C01F1
:101D50000FB6F894DEBF0FBECDBF8F8198850B976D
:101D60000CF4FFC0C10101978637910508F0E3C06C
:101D7000C4010197879790F580918E0290918F0210
:101D800001968E30910514F08DE090E090938F02D3
:101D900080938E02E12CB8EFFB2E08E210E027E7DB
:101DA00030E049E250E060E070E083E392E00E94BE
:101DB000830640918E0250918F02662757FD6095F1
:101DC000762FC12CD12C14E0E12EF12C0CE210E086
:101DD0002EE130E083E392E00E94EA07C4018555DA
:101DE0009109879778F580918E0290918F020197E3
:101DF00097FDD5C090938F0280938E02E12CF8EF6F
:101E0000FF2E08E210E027E730E049E250E060E012
:101E100070E083E392E00E94830640918E0250912D
:101E20008F02662757FD6095762FC12CD12CA4E038
:101E3000EA2EF12C0CE210E02EE130E083E392E098
:101E40000E94EA07C4018E5791098797E8F520910F
:101E50006001309161012F5F3F4F3093610120930A
:101E600060018EE090E040918E0250918F02841BC1
:101E7000950B8217930724F490936101809360017E
:101E8000E12C48EFF42E08E210E027E730E046EAC4
:101E900050E060E070E083E392E00E9483064091AE
:101EA000600150916101662757FD6095762FC12C26
:101EB000D12CE4E0EE2EF12C08EA10E02EE130E027
:101EC00083E392E00E94EA07C401825D910987974B
:101ED00090F58091600190916101019718161906A3
:101EE00014F081E090E09093610180936001E12C17
:101EF00028EFF22E08E210E027E730E046EA50E053
:101F000060E070E083E392E00E948306409160010C
:101F100050916101662757FD6095762FC12CD12C19
:101F200034E0E32EF12C08EA10E02EE130E083E308
:101F300092E00E94EA079DE3291A310887E72816F4
:101F4000310478F4C4018A509140879750F40E947C
:101F5000310E10928302109282021092850210922A
:101F600084026EE571E080E090E028960FB6F89468
:101F7000DEBF0FBECDBFDF91CF911F910F91FF90BC
:101F8000EF90DF90CF90BF90AF909F908F907F9019
:101F90006F905F904F903F902F900C94541310923D
:101FA0008F0210928E022ACFCF92DF92EF92FF9291
:101FB0000F931F93E12C48EFF42E00E411E020EF83
:101FC00030E040E050E060E070E083E392E00E94A7
:101FD0008306E12CF12C08E210E027E730E040E036
:101FE00050E060E070E083E392E00E94AF0706E219
:101FF00010E025E730E041E050E061E070E083E38D
:1020000092E00E948306E12C58EFF52E03E010E0E9
:1020100022E030E048E250E06BE283E392E00E948D
:10202000950640918E0250918F02662757FD60956C
:10203000762FC12CD12CE4E0EE2EF12C0CE210E036
:102040002EE130E083E392E00E94EA07E12CF12CDC
:1020500002E010E028E230E042E850E067ED71E095
:1020600083E392E00E9416072CE330E042E850E060
:102070006FED71E083E392E00E94160708E210E042
:1020800027E730E044E550E060E070E083E392E071
:102090000E94AF0706E210E025E730E045E550E09A
:1020A00061E070E083E392E00E948306E12CF8EFA8
:1020B000FF2E03E010E029E530E048E250E06DE259
:1020C00083E392E00E949506E12CF12C08E210E0F7
:1020D00027E730E04DE750E060E070E083E392E016
:1020E0000E94AF0706E210E025E730E04EE750E03F
:1020F00061E070E083E392E00E948306E12CA8EFA8
:10210000FA2E04E010E02FE730E048E250E06BE206
:1021100083E392E00E949506409160015091610135
:10212000662757FD6095762FB4E0EB2EF12C08EA78
:1021300010E02EE130E083E392E00E94EA07E12C18
:10214000F12C02E010E028EA30E042E850E068EECE
:1021500071E083E392E00E9416072CEB30E042E846
:1021600050E062EF71E083E392E00E94160708E21C
:1021700010E027E730E041ED50E060E070E083E3FD
:1021800092E00E94AF0706E210E025E730E042ED62
:1021900050E061E070E083E392E00E948306E12C6E
:1021A00018EFF12E04E010E025ED30E048E250E0B9
:1021B0006DE283E392E00E949506E12CF12C08E2A7
:1021C00010E028E730E049E051E06CE370E083E3A1
:1021D00092E00E94AF0706E210E026E730E04AE016
:1021E00051E06DE370E083E392E00E948306E12C0E
:1021F00008EFF02E02E010E020E131E040E550E091
:102200006CEF71E083E392E00E9416071F910F913B
:10221000FF90EF90DF90CF9008952F923F924F92D2
:102220005F926F927F928F929F92AF92BF92CF9266
:10223000DF92EF92FF920F931F93CF93DF93CDB76F
:10224000DEB72A970FB6F894DEBF0FBECDBF8EE77C
:1022500092E00E94470229833A834B835C836D831B
:102260007E836B807C808D809E8069817A818827C7
:1022700077FD8095982F1F921F921F9220EF2F932A
:10228000A12CB12C650114EFE12E16E0F12E00E037
:1022900010E028EE30E040E050E00E94D2151B0133
:1022A0002C01B301882777FD8095982F1F921F92EC
:1022B00021E02F9320E42F9312E2E12E17E0F12E7C
:1022C00000E010E026EA30E040E050E00E94D21545
:1022D0000FB6F894DEBF0FBECDBF3BE0831691046E
:1022E00014F19B012D5331092336310540F46F83DE
:1022F000788789879A870E94970B6F8178852DE36D
:10230000221A310837E72316310468F46B5F71092C
:102310006133710540F40E94D40F81E090E0909306
:102320008302809382022A960FB6F894DEBF0FBE16
:10233000CDBFDF91CF911F910F91FF90EF90DF9074
:10234000CF90BF90AF909F908F907F906F905F9055
:102350004F903F902F900895EF92FF920F931F930D
:102360008091880290918902892B09F063C0809145
:10237000860290918702892B09F05CC080918402CB
:1023800090918502892B09F055C08091820290912D
:102390008302892B09F04EC0E12CF12C00E411E0FE
:1023A00020E030E040EF50E060E070E083E392E056
:1023B0000E94B804E12C48EFF42E04E610E020EF70
:1023C00030E04CE350E060E070E083E392E00E9494
:1023D0008306E12CF12C05E010E025E530E04DE22C
:1023E00050E061E072E083E392E00E941607E12C86
:1023F00058EFF52E02E310E028E730E04AEF50E016
:102400006CE370E083E392E00E948306E12CF12C00
:1024100002E010E029E031E049E450E067E072E0DA
:1024200083E392E00E94160781E090E0909385029A
:10243000809384028091820290918302019711F42B
:102440000E94490E8091840290918502019711F4B7
:102450000E940D118091880290918902019721F4C8
:102460000E946D0D0E94D20A80918802909189028B
:10247000892B71F48091860290918702019741F433
:102480000E94950C1F910F91FF90EF900C94D20A2F
:102490001F910F91FF90EF9008954F925F926F926E
:1024A0007F928F929F92AF92BF92CF92DF92EF92E4
:1024B000FF920F930EE02FE040E161E18EE792E0A2
:1024C0000E94080210927D0262E1462E512C612C7E
:1024D000712C4092590250925A0260925B027092A3
:1024E0005C027CE0872E912CA12CB12C80925D02A5
:1024F00090925E02A0925F02B0926002EFE0CE2E58
:10250000D12CE12CF12CC0926102D0926202E092B7
:102510006302F09264020E94311360936D02709323
:102520006E0280936F02909370021092710210926B
:102530007202109273021092740210927902109239
:102540007A0210927B0210927C0210925802409202
:1025500034025092350260923602709237028092B5
:10256000380290923902A0923A02B0923B02C09295
:102570003C02D0923D02E0923E02F0923F020E9465
:102580003113609348027093490280934A029093FA
:102590004B0210924C0210924D0210924E02109279
:1025A0004F0210925402109255021092560210924D
:1025B00057020F91FF90EF90DF90CF90BF90AF90B8
:1025C0009F908F907F906F905F904F9008951F9293
:1025D0000F920FB60F9211242F933F938F939F93D7
:1025E000AF93BF938091A9029091AA02A091AB02F0
:1025F000B091AC023091A80223E0230F2D3720F4D4
:102600000196A11DB11D05C026E8230F0296A11D4C
:10261000B11D2093A8028093A9029093AA02A093CF
:10262000AB02B093AC028091AD029091AE02A0914A
:10263000AF02B091B0020196A11DB11D8093AD0211
:102640009093AE02A093AF02B093B002BF91AF914E
:102650009F918F913F912F910F900FBE0F901F90E0
:1026600018953FB7F8948091AD029091AE02A09179
:10267000AF02B091B00226B5A89B05C02F3F19F05C
:102680000196A11DB11D3FBF6627782F892F9A2F74
:10269000620F711D811D911D42E0660F771F881F1B
:1026A000991F4A95D1F70895CF92DF92EF92FF924A
:1026B000CF93DF936B017C010E943113EB01C114B6
:1026C000D104E104F10489F00E9419160E9431132B
:1026D0006C1B7D0B683E734090F381E0C81AD108F3
:1026E000E108F108C851DC4FEACFDF91CF91FF90AC
:1026F000EF90DF90CF900895789484B5826084BD88
:1027000084B5816084BD85B5826085BD85B58160F5
:1027100085BDEEE6F0E0808181608083E1E8F0E055
:102720001082808182608083808181608083E0E884
:10273000F0E0808181608083E1EBF0E08081846063
:102740008083E0EBF0E0808181608083EAE7F0E065
:1027500080818460808380818260808380818160C9
:1027600080838081806880831092C10008958E30BC
:1027700008F08E5087702091620190E4299F9001AB
:102780001124822B80937C0080917A008064809356
:102790007A0080917A0086FDFCCF809178002091AC
:1027A000790090E0922B0895833081F028F48130F5
:1027B00099F08230A1F008958730A9F08830B9F0FF
:1027C0008430D1F4809180008F7D03C0809180009F
:1027D0008F7780938000089584B58F7702C084B589
:1027E0008F7D84BD08958091B0008F7703C0809164
:1027F000B0008F7D8093B0000895CF93DF9390E079
:10280000FC01E458FC4F2491FC01E057FC4F8491FB
:10281000882349F190E0880F991FFC01E255FC4F95
:10282000A591B4918C559C4FFC01C591D4919FB753
:10283000611108C0F8948C91209582238C93888133
:1028400082230AC0623051F4F8948C91322F309573
:1028500083238C938881822B888304C0F8948C9185
:10286000822B8C939FBFDF91CF9108950F931F937D
:10287000CF93DF931F92CDB7DEB7282F30E0F90159
:10288000E859FC4F8491F901E458FC4F1491F90187
:10289000E057FC4F04910023C9F0882321F069839D
:1028A0000E94D4136981E02FF0E0EE0FFF1FEC557A
:1028B000FC4FA591B4919FB7F8948C91611103C01E
:1028C0001095812301C0812B8C939FBF0F90DF91C6
:1028D000CF911F910F9108951F920F920FB60F92F3
:1028E00011242F938F939F93EF93FF93E091C10255
:1028F000F091C2028081E091C702F091C80282FD8E
:1029000012C090818091CA028F5F8F732091CB0299
:10291000821751F0E091CA02F0E0EF54FD4F958F1D
:102920008093CA0201C08081FF91EF919F918F91A6
:102930002F910F900FBE0F901F9018951F920F921E
:102940000FB60F9211242F933F934F935F936F9382
:102950007F938F939F93AF93BF93EF93FF9381EBFD
:1029600092E00E945516FF91EF91BF91AF919F9118
:102970008F917F916F915F914F913F912F910F9028
:102980000FBE0F901F90189581EB92E00E941A16CF
:1029900021E0892B09F420E0822F08951092B402DF
:1029A0001092B30288EE93E0A0E0B0E08093B5020D
:1029B0009093B602A093B702B093B80285E292E07A
:1029C0009093B2028093B10285EC90E09093BE02A6
:1029D0008093BD0284EC90E09093C0028093BF028C
:1029E00080EC90E09093C2028093C10281EC90E071
:1029F0009093C4028093C30282EC90E09093C6024D
:102A00008093C50286EC90E09093C8028093C70241
:102A10001092CA021092CB021092CC021092CD02F8
:102A2000089508950E947C130E9411150E94250AA2
:102A3000C7E4D6E10E94AC112097E1F30E9447164B
:102A4000F9CFCF92DF92EF92FF920F931F93CF9324
:102A5000DF936C017A01EB01E60EF71E00E010E057
:102A6000CE15DF0561F06991D601ED91FC910190E1
:102A7000F081E02DC6010995080F191FF1CFC8019B
:102A8000DF91CF911F910F91FF90EF90DF90CF904A
:102A900008956115710581F0DB010D900020E9F7C3
:102AA000AD0141505109461B570BDC01ED91FC91E2
:102AB0000280F381E02D099480E090E008950C9469
:102AC000491560E172E00C9449158F929F92AF9284
:102AD000BF92CF92DF92EF92FF920F931F93CF930B
:102AE000DF93CDB7DEB7A1970FB6F894DEBF0FBE68
:102AF000CDBF7C01C42EE52FCB01D22E19A221E03F
:102B00002D1510F02AE0D22E8E010F5D1F4F8D2C57
:102B1000912CA12CB12C6C2D7E2FA50194010E942B
:102B2000FC188C2DD29E80191124015011098A3075
:102B300014F4805D01C0895CF801808321153105A2
:102B40004105510521F0C22EE32FCA01E4CFB8019F
:102B5000C7010E944915A1960FB6F894DEBF0FBEBB
:102B6000CDBFDF91CF911F910F91FF90EF90DF903C
:102B7000CF90BF90AF909F908F9008952115310511
:102B800041F4DC01ED91FC910190F081E02D642F86
:102B900009940C9465159A01462F50E060E070E0AE
:102BA0000C94BE154F925F926F927F92AF92BF923C
:102BB000CF92DF92EF92FF920F931F93CF93DF9309
:102BC000CDB7DEB729013A01621B730B840B950B5D
:102BD00029893A894B895C892A193B094C095D0985
:102BE000298B3A8B4B8B5C8B9B01AC0169897A8971
:102BF0008B899C890E94EC18E418F50806091709CE
:102C0000A80197010E941E192A0D3B1D4C1D5D1D38
:102C1000CA01B901DF91CF911F910F91FF90EF9001
:102C2000DF90CF90BF90AF907F906F905F904F906C
:102C300008950895FC01818D228D90E0805C9F4F66
:102C4000821B91098F7399270895FC01918D828DC4
:102C5000981731F0828DE80FF11D858D90E0089571
:102C60008FEF9FEF0895FC01918D828D981761F091
:102C7000828DDF01A80FB11D5D968C91928D9F5FB3
:102C80009F73928F90E008958FEF9FEF089584ECEB
:102C900094E1892B49F080E090E0892B29F00E9493
:102CA000C41481110C9400000895FC01848DDF018F
:102CB000A80FB11DA35ABF4F2C91848D90E00196AF
:102CC0008F739927848FA689B7892C93A089B1899E
:102CD0008C9180648C93938D848D981306C00288A8
:102CE000F389E02D80818F7D80830895CF93DF93DA
:102CF000EC01888D8823C9F0EA89FB89808185FDF4
:102D000005C0A889B9898C9186FD0FC00FB607FC54
:102D1000F5CF808185FFF2CFA889B9898C9185FF95
:102D2000EDCFCE010E945516E7CFDF91CF910895E8
:102D3000CF92DF92FF920F931F93CF93DF931F9257
:102D4000CDB7DEB76C0181E0D60158968C935897C9
:102D50005B969C915B975C968C915C97981307C0EF
:102D60005096ED91FC915197808185FD2EC0F60122
:102D7000038D10E00F5F1F4F0F731127F02EF60128
:102D8000848DF81211C00FB607FCF9CFD60150960A
:102D9000ED91FC915197808185FFF1CFC601698348
:102DA0000E9455166981EBCF838DE80FF11DE35A20
:102DB000FF4F6083D6015B960C935B975296ED9123
:102DC000FC915397808180620CC0D6015696ED919C
:102DD000FC91579760835096ED91FC9151978081BB
:102DE0008064808381E090E00F90DF91CF911F910C
:102DF0000F91FF90DF90CF9008955058BB27AA27DE
:102E00000ED04DC13ED130F043D120F031F49F3F80
:102E100011F41EF433C10EF4E095E7FB29C1E92F4C
:102E20004FD180F3BA17620773078407950718F02C
:102E300071F49EF567C10EF4E0950B2EBA2FA02D0C
:102E40000B01B90190010C01CA01A0011124FF2757
:102E5000591B99F0593F50F4503E68F11A16F04052
:102E6000A22F232F342F4427585FF3CF4695379551
:102E70002795A795F0405395C9F77EF41F16BA0B16
:102E8000620B730B840BBAF09150A1F0FF0FBB1FC4
:102E9000661F771F881FC2F70EC0BA0F621F731F0D
:102EA000841F48F4879577956795B795F7959E3F6A
:102EB00008F0B3CF9395880F08F09927EE0F9795F8
:102EC000879508950CD0EBC0E3D040F0DAD030F015
:102ED00021F45F3F19F0CCC0511115C1CFC0F0D023
:102EE00098F39923C9F35523B1F3951B550BBB27D1
:102EF000AA2762177307840738F09F5F5F4F220F7E
:102F0000331F441FAA1FA9F333D00E2E3AF0E0E876
:102F100030D091505040E695001CCAF729D0FE2FC2
:102F200027D0660F771F881FBB1F26173707480754
:102F3000AB07B0E809F0BB0B802DBF01FF2793580A
:102F40005F4F2AF09E3F510568F092C0DCC05F3FA2
:102F5000ECF3983EDCF3869577956795B795F795F2
:102F60009F5FC9F7880F911D9695879597F90895EA
:102F7000E1E0660F771F881FBB1F62177307840786
:102F8000BA0720F0621B730B840BBA0BEE1F88F795
:102F9000E095089504D06894B111B5C0089598D013
:102FA00088F09F5790F0B92F9927B751A0F0D1F032
:102FB000660F771F881F991F1AF0BA95C9F712C0BC
:102FC000B13081F09FD0B1E008959CC0672F782F79
:102FD0008827B85F39F0B93FCCF386957795679528
:102FE000B395D9F73EF490958095709561957F4F94
:102FF0008F4F9F4F0895E89409C097FB3EF490953A
:103000008095709561957F4F8F4F9F4F9923A9F0C1
:10301000F92F96E9BB279395F69587957795679550
:10302000B795F111F8CFFAF4BB0F11F460FF1BC094
:103030006F5F7F4F8F4F9F4F16C0882311F096E927
:1030400011C0772321F09EE8872F762F05C06623D5
:1030500071F096E8862F70E060E02AF09A95660F8E
:10306000771F881FDAF7880F9695879597F9089547
:1030700097F99F6780E870E060E008959FEF80EC2B
:10308000089500240A9416161706180609060895CE
:1030900000240A9412161306140605060895092E34
:1030A0000394000C11F4882352F0BB0F40F4BF2BA3
:1030B00011F460FF04C06F5F7F4F8F4F9F4F0895E3
:1030C00057FD9058440F551F59F05F3F71F04795D9
:1030D000880F97FB991F61F09F3F79F087950895BE
:1030E000121613061406551FF2CF4695F1DF08C0DD
:1030F000161617061806991FF1CF869571056105FA
:1031000008940895E894BB2766277727CB0197F9A1
:1031100008950BD0C4CFB5DF28F0BADF18F095239F
:1031200009F0A6CFABCF1124EECFCADFA0F3959F55
:10313000D1F3950F50E0551F629FF001729FBB279E
:10314000F00DB11D639FAA27F00DB11DAA1F649F4A
:103150006627B00DA11D661F829F2227B00DA11DFD
:10316000621F739FB00DA11D621F839FA00D611D83
:10317000221F749F3327A00D611D231F849F600DA4
:10318000211D822F762F6A2F11249F5750408AF0DD
:10319000E1F088234AF0EE0FFF1FBB1F661F771F69
:1031A000881F91505040A9F79E3F510570F060CFA5
:1031B000AACF5F3FECF3983EDCF386957795679551
:1031C000B795F795E7959F5FC1F7FE2B880F911D87
:1031D0009695879597F90895DB018F939F930E94A9
:1031E0004C19BF91AF91A29F800D911DA39F900D8F
:1031F000B29F900D11240895A1E21A2EAA1BBB1BA9
:10320000FD010DC0AA1FBB1FEE1FFF1FA217B307B2
:10321000E407F50720F0A21BB30BE40BF50B661FC8
:10322000771F881F991F1A9469F76095709580958C
:1032300090959B01AC01BD01CF010895052E97FB30
:103240001EF400940E94351957FD07D00E94FC1807
:1032500007FC03D04EF40C943519509540953095E9
:1032600021953F4F4F4F5F4F0895909580957095F2
:1032700061957F4F8F4F9F4F0895A29FB001B39FDD
:10328000C001A39F700D811D1124911DB29F700D6F
:10329000811D1124911D08950E943D19A59F900D37
:1032A000B49F900DA49F800D911D11240895EE0FE1
:1032B000FF1F0590F491E02D0994AEE0B0E0E3E645
:1032C000F9E10C941B1C0D891E8986E08C831A83FE
:1032D00009838FEF9FE79E838D83AE01475E5F4F2B
:1032E0006F89788DCE0101960E947F19EF81F88554
:1032F000E00FF11F10822E96E4E00C94371CACE036
:10330000B0E0E5E8F9E10C940D1C7C016B018A0149
:10331000FC0117821682838181FFBDC1CE01019617
:103320004C01F7019381F60193FD859193FF819103
:103330006F01882309F4ABC1853239F493FD85917F
:1033400093FF81916F01853229F4B70190E00E94CB
:103350007D1BE7CF512C312C20E02032A0F48B32A2
:1033600069F030F4803259F0833269F420612CC066
:103370008D3239F0803339F4216026C02260246018
:1033800023C0286021C027FD27C030ED380F3A3018
:1033900078F426FF06C0FAE05F9E300D1124532E0C
:1033A00013C08AE0389E300D1124332E20620CC0E9
:1033B0008E3221F426FD6BC1206406C08C3611F4D8
:1033C000206802C0883641F4F60193FD859193FF91
:1033D00081916F018111C1CF982F9F7D95549330BA
:1033E00028F40C5F1F4FFFE3F9830DC0833631F0E3
:1033F000833771F0833509F05BC022C0F80180810A
:1034000089830E5F1F4F44244394512C540115C0EF
:103410003801F2E06F0E711CF801A080B18026FF28
:1034200003C0652D70E002C06FEF7FEFC5012C87F0
:103430000E94721B2C0183012C852F77222E17C02E
:103440003801F2E06F0E711CF801A080B18026FFF8
:1034500003C0652D70E002C06FEF7FEFC5012C87C0
:103460000E94671B2C012C852068222E830123FCDF
:103470001BC0832D90E048165906B0F4B70180E2D6
:1034800090E00E947D1B3A94F4CFF50127FC8591D2
:1034900027FE81915F01B70190E00E947D1B3110F2
:1034A0003A94F1E04F1A51084114510471F7E5C004
:1034B000843611F0893639F5F80127FF07C060819D
:1034C0007181828193810C5F1F4F08C0608171817F
:1034D000882777FD8095982F0E5F1F4F2F76B22E8D
:1034E00097FF09C090958095709561957F4F8F4F9C
:1034F0009F4F2068B22E2AE030E0A4010E94AF1B4B
:10350000A82EA81844C0853729F42F7EB22E2AE0B1
:1035100030E025C0F22FF97FBF2E8F36C1F018F4AE
:10352000883579F0B4C0803719F0883721F0AFC002
:103530002F2F2061B22EB4FE0DC08B2D8460B82ECB
:1035400009C024FF0AC09F2F9660B92E06C028E04C
:1035500030E005C020E130E002C020E132E0F801B7
:10356000B7FE07C060817181828193810C5F1F4F1C
:1035700006C06081718180E090E00E5F1F4FA40162
:103580000E94AF1BA82EA818FB2DFF77BF2EB6FEFA
:103590000BC02B2D2E7FA51450F4B4FE0AC0B2FC34
:1035A00008C02B2D2E7E05C07A2C2B2D03C07A2C23
:1035B00001C0752C24FF0DC0FE01EA0DF11D8081B4
:1035C000803311F4297E09C022FF06C073947394DE
:1035D00004C0822F867809F0739423FD13C020FF66
:1035E00006C05A2C731418F4530C5718732C731408
:1035F00068F4B70180E290E02C870E947D1B7394F1
:103600002C85F5CF731410F4371801C0312C24FF2A
:1036100012C0B70180E390E02C870E947D1B2C85AF
:1036200022FF17C021FF03C088E590E002C088E7B1
:1036300090E0B7010CC0822F867859F021FD02C0BE
:1036400080E201C08BE227FD8DE2B70190E00E948D
:103650007D1BA51438F4B70180E390E00E947D1B28
:103660005A94F7CFAA94F401EA0DF11D8081B701B5
:1036700090E00E947D1BA110F5CF332009F451CEBC
:10368000B70180E290E00E947D1B3A94F6CFF701EB
:103690008681978102C08FEF9FEF2C96E2E10C9418
:1036A000291CF999FECF92BD81BDF89A992780B562
:1036B0000895262FF999FECF1FBA92BD81BD20BD76
:1036C0000FB6F894FA9AF99A0FBE01960895FC0184
:1036D0000590615070400110D8F7809590958E0F3D
:1036E0009F1F0895FC016150704001900110D8F7B0
:1036F000809590958E0F9F1F08950F931F93CF93E2
:10370000DF93182F092FEB018B8181FD03C08FEF11
:103710009FEF20C082FF10C04E815F812C813D81D0
:10372000421753077CF4E881F9819F012F5F3F4FD7
:1037300039832883108306C0E885F985812F099590
:10374000892B29F72E813F812F5F3F4F3F832E83A7
:10375000812F902FDF91CF911F910F910895FA0142
:10376000AA27283051F1203181F1E8946F936E7FC0
:103770006E5F7F4F8F4F9F4FAF4FB1E03ED0B4E0B1
:103780003CD0670F781F891F9A1FA11D680F791FF2
:103790008A1F911DA11D6A0F711D811D911DA11D03
:1037A00020D009F468943F912AE0269F1124301913
:1037B000305D3193DEF6CF010895462F4770405DAE
:1037C0004193B3E00FD0C9F7F6CF462F4F70405D5D
:1037D0004A3318F0495D31FD4052419302D0A9F7B8
:1037E000EACFB4E0A6959795879577956795BA95B2
:1037F000C9F700976105710508959B01AC010A2E78
:1038000006945795479537952795BA95C9F7620F4E
:10381000731F841F951FA01D08952F923F924F92F2
:103820005F926F927F928F929F92AF92BF92CF9250
:10383000DF92EF92FF920F931F93CF93DF93CDB759
:10384000DEB7CA1BDB0B0FB6F894DEBF0FBECDBFD1
:1038500009942A88398848885F846E847D848C84A2
:103860009B84AA84B984C884DF80EE80FD800C81AB
:103870001B81AA81B981CE0FD11D0FB6F894DEBF8E
:0C3880000FBECDBFED010895F894FFCFFE
:10388C000100000040420F00000000000100000099
:10389C00000002000000000004000000000008000E
:1038AC00000000000F00000000001E0000000100DE
:1038BC0000000000020000000000040000000000F6
:1038CC000800000000000F00000000001E000000B7
:1038DC00010000000000020000000000881301003D
:1038EC00040001526561642054465420494420660A
:1038FC0061696C65642C2049442073686F756C6435
:10390C0020626520307830393334312C2062757464
:10391C002072656164204944203D2030780041428A
:10392C004F5254002530326C753A2530326C753A52
:10393C002530326C75004461726B204672616D6586
:10394C0000536176696E6720496D61676500457843
:10395C00706F7375726500696E697469616C00656E
:10396C0078706F73757265004E756D626572206F3D
:10397C0066004578706F7375726573005361766578
:10398C000053544152540053657474696E6773004C
:10399C000D0A006E616E00696E66006F7666002E11
:1039AC000000000000981621151A163316251676FD
:0239BC001600F3
:00000001FF
