:100000000C94DD010C9405020C9405020C9405027D
:100010000C9405020C9405020C9405020C94050244
:100020000C9405020C9405020C9405020C94050234
:100030000C9405020C9405020C9405020C94050224
:100040000C9467030C9405020C9437020C94110273
:100050000C9405020C9405020C9405020C94050204
:100060000C9405020C9405020000000024002700F7
:100070002A0000000008000201000003040700003D
:100080000000000000000000000000000000000070
:100090005F000000000000000700070000000014DF
:1000A0007F147F14000000242A7F2A1200000023FE
:1000B0001308646200000036495522500000000019
:1000C000050300000000001C224100000000004168
:1000D000221C0000000000082A1C2A08000000085A
:1000E000083E0808000000A06000000000000008B2
:1000F0000808080800000060600000000000002000
:10010000100804020000003E5149453E0000000076
:10011000427F400000000062514949460000002231
:10012000414949360000001814127F1000000027D2
:10013000454545390000003C4A494930000000016E
:1001400071090503000000364949493600000006E0
:100150004949291E0000000036360000000000005A
:10016000AC6C0000000000081422410000000014E4
:1001700014141414000000412214080000000002AE
:1001800001510906000000324979413E0000007E1D
:100190000909097E0000007F494949360000003EF8
:1001A000414141220000007F4141221C0000007FAC
:1001B000494949410000007F090909010000003E4A
:1001C000414151720000007F0808087F00000000D4
:1001D000417F41000000002040413F010000007FBE
:1001E000081422410000007F404040400000007F92
:1001F000020C027F0000007F0408107F0000003E18
:100200004141413E0000007F090909060000003E0F
:100210004151215E0000007F091929460000002697
:100220004949493200000001017F01010000003FFF
:100230004040403F0000001F2040201F0000003FC2
:100240004038403F000000631408146300000003BE
:100250000478040300000061514945430000007F19
:10026000414100000000000204081020000000418D
:10027000417F000000000004020102040000008031
:100280008080808000000001020400000000002047
:10029000545454780000007F48444438000000382B
:1002A00044442800000000384444487F00000038DF
:1002B00054545418000000087E0902000000001881
:1002C000A4A4A47C0000007F0804047800000000BF
:1002D0007D00000000000080847D00000000007FA1
:1002E00010284400000000417F4000000000007C16
:1002F000041804780000007C08047C00000000382A
:1003000044443800000000FC2424180000000018B9
:100310002424FC00000000007C08040000000048C9
:1003200054542400000000047F4400000000003CFE
:1003300040407C000000001C2040201C0000003CCD
:100340004030403C00000044281028440000001CBD
:10035000A0A07C000000004464544C44000000084D
:1003600036410000000000007F0000000000004156
:100370003608000000000002010102010000000236
:1003800005050200000000000000250028002B00E9
:10039000010204081020408001020408102001021C
:1003A00004081020040404040404040402020202E9
:1003B00002020303030303030B1611241FBECFEF36
:1003C000D8E0DEBFCDBF23E0AAE4B2E001C01D92B9
:1003D000AB36B207E1F712E0A0E0B1E0EAE1F8E302
:1003E00002C005900D92AA34B107D9F711E0CDED06
:1003F000D1E004C02197FE010E94A716CC3DD10791
:10040000C9F70E94530D0C940B1C0C94000080E85B
:1004100092E00E94630821E0892B09F420E0822FFA
:1004200008951F920F920FB60F9211242F933F93AE
:100430004F935F936F937F938F939F93AF93BF93EC
:10044000EF93FF9380E892E00E94920CFF91EF916E
:10045000BF91AF919F918F917F916F915F914F91DC
:100460003F912F910F900FBE0F901F9018951F92E4
:100470000F920FB60F9211242F938F939F93EF93A8
:10048000FF93E0919002F09191028081E0919602B9
:10049000F091970282FD12C09081809199028F5F46
:1004A0008F7320919A02821751F0E0919902F0E047
:1004B000E058FD4F958F8093990201C08081FF9194
:1004C000EF919F918F912F910F900FBE0F901F90E2
:1004D000189590E0FC01EE58FF4F3491FC01E05775
:1004E000FC4F2491FC01EC55FC4FE491EE2309F400
:1004F0003BC0332339F1333091F038F43130A9F077
:10050000323001F584B58F7D12C0373091F038302C
:10051000A1F03430B9F4809180008F7D03C08091C8
:1005200080008F77809380000DC084B58F7784BD65
:1005300009C08091B0008F7703C08091B0008F7D9B
:100540008093B000F0E0EE0FFF1FEA57FC4FA5913B
:10055000B4918FB7F894EC91611103C020952E23CC
:1005600001C02E2B2C938FBF0895CF93DF9390E083
:10057000FC01E057FC4F2491FC01EC55FC4F8491A9
:10058000882361F190E0880F991FFC01E859FF4F23
:10059000C591D491FC01EA57FC4FA591B49161112A
:1005A00009C09FB7F8948881209582238883EC91B5
:1005B0002E230BC0623061F49FB7F8943881822FEC
:1005C000809583238883EC912E2B2C939FBF06C0AC
:1005D0008FB7F894E8812E2B28838FBFDF91CF91BE
:1005E00008958E3008F08E508770806480937C0070
:1005F00080917A00806480937A0080917A0086FDF1
:10060000FCCF809178002091790090E0922B0895A2
:100610003FB7F89480917B0290917C02A0917D027B
:10062000B0917E0226B5A89B05C02F3F19F0019618
:10063000A11DB11D3FBFBA2FA92F982F8827820F68
:10064000911DA11DB11DBC01CD0142E0660F771FB8
:10065000881F991F4A95D1F708958F929F92AF9264
:10066000BF92CF92DF92EF92FF926B017C010E94CA
:1006700008034B015C01C114D104E104F104F1F061
:100680000E940803DC01CB0188199909AA09BB095A
:10069000883E9340A105B10570F321E0C21AD1084C
:1006A000E108F10888EE880E83E0981EA11CB11CB9
:1006B000C114D104E104F10419F7DDCFFF90EF90EC
:1006C000DF90CF90BF90AF909F908F9008951F9232
:1006D0000F920FB60F9211242F933F938F939F93F6
:1006E000AF93BF938091770290917802A0917902A5
:1006F000B0917A023091760223E0230F2D3720F457
:100700000196A11DB11D05C026E8230F0296A11D6B
:10071000B11D209376028093770290937802A09384
:100720007902B0937A0280917B0290917C02A09131
:100730007D02B0917E020196A11DB11D80937B02C6
:1007400090937C02A0937D02B0937E02BF91AF9103
:100750009F918F913F912F910F900FBE0F901F90FF
:1007600018958EBD00000DB407FEFDCF8EB508951F
:10077000CF93C82F569A5E9A559A5D98892F0E94FA
:10078000B1038C2F0E94B103559A5D9ACF910895C1
:10079000569A5E9A559A5D980E94B103559A5D9A51
:1007A0000895569A5E98559A5D980E94B103559A9D
:1007B0005D9A0895BF92CF92DF92EF92FF920F93CE
:1007C0001F93CF93DF93B82E34E0C32ED12CE12CAE
:1007D00044E0F42E00E010E0C0E0D0E08B2D0E9459
:1007E000F102081719070CF48C018E159F050CF403
:1007F0007C01C80FD91F81E0C81AD10879F7CE0152
:100800008E199F09801B910B97FD019695958795F1
:10081000DF91CF911F910F91FF90EF90DF90CF90DC
:10082000BF9008950C94631B8F929F92AF92BF92DA
:10083000CF92DF92FF920F931F93CF93DF93CDB7A9
:10084000DEB72A970FB6F894DEBF0FBECDBF00E02B
:1008500018EF2BE930E043E750E064EC70E08BE206
:1008600090E00E94DE0A0FE110E028E230E049E962
:1008700050E063E770E08BE290E00E941B0C609117
:10088000030170E080E090E019821A821B821C82D2
:10089000FE01359626E0DF011D922A95E9F76115E4
:1008A00071058105910561F400E010E023E030E07E
:1008B0004DE750E06EE670E080E30E94680B3AC0BE
:1008C00030E04AE0842E912CA12CB12CFF24F3942B
:1008D000F30ECC24C394D12CCC0EDD1EC30ED11C40
:1008E000A50194010E94791BF6016083B901CA0138
:1008F0003F2D611571058105910541F78EE6C82EE2
:10090000D12CFF20B9F0FE01EF0DF11D808100E038
:1009100010E023E030E04DE750E0B601805D0E943A
:10092000680BFFEECF16D10418F482E1C80ED11C7B
:10093000FA94E7CF2A960FB6F894DEBF0FBECDBF6C
:10094000DF91CF911F910F91FF90DF90CF90BF90DB
:10095000AF909F908F9008950F931F93E0914B025B
:1009600086E0E89FF0011124E85FFE4F85818F93B8
:1009700084818F9383818F9382818F9381818F93E1
:1009800080818F938EE292E09F938F938AE692E02C
:100990009F938F930E94C21800E018EF20E530E08B
:1009A00048E250E064EC70E08BE290E00E94DE0AE6
:1009B0000FE110E028E230E049E950E068E270E041
:1009C0008BE290E00E941B0C00E010E023E030E09E
:1009D00042E350E06EE270E08AE692E00E94E20BB1
:1009E0008DB79EB70A960FB6F8949EBF0FBE8DBF07
:1009F0001F910F9108952F923F924F925F926F92A5
:100A00007F928F929F92AF92BF92CF92DF92EF929E
:100A1000FF920F931F93CF93DF9300D0CDB7DEB734
:100A20002C013B011A013A832983260F371FBC0191
:100A3000640F751FA3010E94DE0A870129813A8194
:100A4000A101B301C2010E941B0CA301475F5F4FCC
:100A5000B2016B5F7F4F84019501C6010E94E20BDA
:100A60000F900F90DF91CF911F910F91FF90EF901A
:100A7000DF90CF90BF90AF909F908F907F906F90BE
:100A80005F904F903F902F9008958F929F92AF92DA
:100A9000BF92CF92DF92EF92FF920F931F938091BC
:100AA000020181110CC04FE0842E48E7942E52E0E1
:100AB000A52EB12C6DE3C62E62E0D62E0BC0882485
:100AC0008A9497E0992E22E0A22EB12C31E4C32E15
:100AD00032E0D32E8FE1E82EF12C00E010E02EE181
:100AE00030E04DE250E062ED70E089E190E00E947C
:100AF000FB041F910F91FF90EF90DF90CF90BF907C
:100B0000AF909F908F90089580E090E00E94120433
:100B100080934B0281E090E00E94120480930301D5
:100B200082E090E00E94120491E0811101C090E007
:100B300090934A0283E090E00E94120491E08111B8
:100B400001C090E09093020108950F931F9300E07D
:100B500010E029E331E040ED50E06CE670E083E026
:100B600090E00E94DE0A00E018EF24E331E045ED5A
:100B700050E06FED70E080E890E00E94DE0A0FE147
:100B800010E02FE530E04FE550E065ED70E080E8E3
:100B900090E00E941B0C00E010E022E030E04FEFFC
:100BA00050E061E970E084E492E00E94E20B1F9162
:100BB0000F9108950F931F93CF93DF9300D000D030
:100BC00000D0CDB7DEB70E94E10829833A834B837A
:100BD0005C836D837E8329813A810B811C818D81A9
:100BE0009E810B970CF448C0C901330FAA0BBB0BB5
:100BF0009C01AD01285E310941095109A0EFB0E027
:100C00000E94981B2CE036E040E050E00E94791BE7
:100C1000215831092E35310578F5C801110FAA0B7D
:100C2000BB0B9C01AD01265A310941095109A0E4D1
:100C3000B1E00E94981B2CE736E040E050E00E94B3
:100C4000791B265D31092E353105B0F410925B0217
:100C500010925A02109259021092580260E083E0FA
:100C600026960FB6F894DEBF0FBECDBFDF91CF91B1
:100C70001F910F910C94690226960FB6F894DEBF6F
:100C80000FBECDBFDF91CF911F910F9108950F93AC
:100C90001F9380915A0390915B03A0915C03B091E4
:100CA0005D038F319105A105B10520F0209102016E
:100CB000211111C0109235031092360310923703A0
:100CC000109238031092390310923A0310923B03AA
:100CD00010923C031BC0AC01BD014C53510961098A
:100CE00071094D33510561057105C0F480933503D9
:100CF00090933603A0933703B0933803809339035E
:100D000090933A03A0933B03B0933C0310923E03AD
:100D100081E080933F031F910F910895AC01BD01C5
:100D2000465F5F4F6F4F7F4F22E0B695A79597952F
:100D300087952A95D1F78A019B01081B190B2A0B6D
:100D40003B0BD901C801D2CF4F925F926F927F9235
:100D50008F929F92AF92BF92EF92FF920F931F9349
:100D6000CF93DF9320914B028091580290E0820F45
:100D7000911D26E0289FF001299FF00D1124E85FC6
:100D8000FE4FE480F58000E010E02281338140E0F6
:100D900050E06081718180E090E00E94560AC2E4D8
:100DA000D3E0FF24F394FAA20E94470600E010E08B
:100DB00020E431E040E050E060EF70E080E090E05F
:100DC0000E94DE0A00E018EF22E030E04AE050E046
:100DD0006AE070E084EE91E00E94E20B26E930E0E8
:100DE00042E350E060EF70E080E090E00E94DE0AB5
:100DF000888C998CAA8CBB8C8CE3482E512C612C4E
:100E0000712CC501B401A30192010E94A31B9F9301
:100E10008F937F936F93CA01B901A30192010E943E
:100E2000A31B9F938F937F936F93C501B40120E120
:100E30003EE040E050E00E94A31B5F934F933F933E
:100E40002F938FE092E09F938F938CE492E09F9397
:100E50008F930E94C21800E010E024E030E046E4E6
:100E600050E06AE070E08CE492E00E94E20BF092C5
:100E70005B0210925A02109259021AA20E940803B1
:100E80006C8B7D8B8E8B9F8B8DB79EB740960FB6EC
:100E9000F8949EBF0FBE8DBFDF91CF911F910F9130
:100EA000FF90EF90BF90AF909F908F907F906F904A
:100EB0005F904F900C94A5054F925F926F927F9236
:100EC0008F929F92AF92BF92CF92DF92EF92FF925A
:100ED000CF93DF936A01E901FC01808C918CA28C95
:100EE000B38C2B01612C712CC501B40120E13EE0D3
:100EF00040E050E00E94A31B4216530664067506AC
:100F000019F5E12CF12C8CE3482E512C612C712C1D
:100F1000C501B401A30192010E94A31B4B015C0116
:100F2000CA01B901A30192010E94A31BC616D706EC
:100F3000E806F90649F4AE0160E070E081E048158A
:100F400059056A057B0509F080E0DF91CF91FF909C
:100F5000EF90DF90CF90BF90AF909F908F907F9059
:100F60006F905F904F9008958F929F92AF92BF9233
:100F7000CF92DF92EF92FF92CF93DF93EC011BA20F
:100F800089A181115AC08AA1811157C00E9408030A
:100F90004B015C01688B798B8A8B9B8BCC88DD88BD
:100FA000EE88FF88DC01CB018C199D09AE09BF09D1
:100FB00081349244AF40B10508F43FC02CA1888D24
:100FC000998DAA8DBB8D222321F00196A11DB11D03
:100FD00003C00197A109B109888F998FAA8FBB8F90
:100FE00081E08BA3211109C0888D998DAA8DBB8DBD
:100FF000892B8A2B8B2B09F441C0288539854C819C
:101000005D8168817981CE010E945C07811136C0C3
:1010100080E4C80E82E4D81E8FE0E81EF11C8C1418
:101020009D04AE04BF0428F0CC8ADD8AEE8AFF8AD4
:1010300004C01C8A1D8A1E8A1F8A8AA1882381F007
:101040000E940803CC88DD88EE88FF88DC01CB0194
:101050008C0D9D1DAE1DBF1D8C8B9D8BAE8BBF8BD4
:1010600099A181E08927DF91CF91FF90EF90DF90E8
:10107000CF90BF90AF909F908F90089581E089A30B
:10108000C7CFFC01918D828D981761F0828DDF01B1
:10109000A80FB11D5D968C91928D9F5F9F73928F6B
:1010A00090E008958FEF9FEF0895FC01918D828D60
:1010B000981731F0828DE80FF11D858D90E008952D
:1010C0008FEF9FEF0895FC01918D228D892F90E085
:1010D000805C9F4F821B91098F7399270895CF924F
:1010E000DF92EF92FF920F931F93CF93DF937C01D8
:1010F000EB018A0169018AE20E94D103C7010E94C3
:10110000B803C7010E94B8037E01E00EF11E8BE216
:101110000E94D103CE010E94B803C7010E94B80308
:101120008CE20E94D103C0E0D0E0C017D10729F0C3
:10113000C6010E94B8032196F8CFDF91CF911F918D
:101140000F91FF90EF90DF90CF900895AF92BF92F4
:10115000CF92DF92EF92FF920F931F93CF93DF9383
:101160007C01EB018A0169015C01A40EB51E8AE2D3
:101170000E94D103C7010E94B803C5010E94B803B1
:101180008BE20E94D103CE010E94B803CE010E94DF
:10119000B8038CE20E94D103C0E0D0E0C017D107B1
:1011A00029F0C6010E94B8032196F8CFDF91CF91B4
:1011B0001F910F91FF90EF90DF90CF90BF90AF9075
:1011C00008952F923F924F925F926F927F928F92EB
:1011D0009F92AF92BF92CF92DF92EF92FF920F93C6
:1011E0001F93CF93DF9300D000D000D0CDB7DEB7F0
:1011F00020916A0330E0F901EC55FC4FE4908091B6
:101200006703A82FB0E0FD01EC55FC4F04916091FD
:10121000690370E0FB01EC55FC4F9490409168032A
:1012200050E0FA01EC55FC4FC490F901E057FC4F37
:10123000B490FD01E057FC4F7490FB01E057FC4F68
:101240008490FA01E057FC4FA49060E00E94B50240
:1012500060E0809168030E94B50210E0000F111F4A
:101260000A571C4FF801A591B4918C91372C3094FA
:1012700083218C93D12CF601EE0FFF1F9F012A577B
:101280003C4F6901F901A591B4919C918A2D8095FB
:1012900089238C9361E080916A030E94B50261E02A
:1012A000809169030E94B502F12CF701EE0FFF1F38
:1012B000CF018A579C4F7C01FC01A591B4918C9180
:1012C0008B298C93E92DF0E0EE0FFF1FEA57FC4FBE
:1012D000A591B491EC9180948E228C9280916703B9
:1012E00090E00E94DA034C018091670390E00E9435
:1012F000DA038815990524F42401481A590A03C011
:101300002C0148185908880E991E60E080916A03E4
:101310000E94B50260E0809169030E94B502F70166
:10132000A591B4918C91B0948B218C9361E08091C4
:1013300067030E94B502F801A591B491EC917E2A51
:101340007C9261E0809168030E94B50280916903FC
:1013500090E00E94DA033C018091690390E00E94D2
:10136000DA03861597052CF49301281B390BC90164
:1013700002C086199709039734F42224239433E09A
:10138000431651040CF0212C660C771C61E080910F
:101390006A030E94B502F701A591B491EC91BE22B7
:1013A000BC92F601A591B491EC91AE2AAC92F801F1
:1013B000A591B4918C9138223C9260E080916703B2
:1013C0000E94B502809169030E94F1028C01809114
:1013D00067030E94F102222009F441C0BC01990F69
:1013E000880B990B0E94C4176B017C01B801110F87
:1013F000880B990B0E94C4179B01AC01C701B60171
:101400000E941A1720E030E040E85FE30E94AD162A
:101410006B017C018EEF97E08819990997FD019681
:1014200095958795BC01990F880B990B0E94C4175D
:101430009B01AC01C701B6010E94501820E030E0CA
:1014400046E953E40E94501820E030E040E85AE3B7
:101450000E9450180E948C17E62F872F02C0E0E0F0
:1014600080E09A8289827C826B82282D3A81462D87
:101470005C816E2F782F80E090E026960FB6F8946E
:10148000DEBF0FBECDBFDF91CF911F910F91FF90B7
:10149000EF90DF90CF90BF90AF909F908F907F9014
:1014A0006F905F904F903F902F9008954F925F9272
:1014B0006F927F928F929F92AF92BF92EF92FF9224
:1014C0000F931F93CF93DF9300D000D0CDB7DEB73B
:1014D0002B013C0149015A01C801B7012CE330E05E
:1014E00040E050E00E94A31B29833A834B835C8336
:1014F000C501B4012CE330E040E050E00E94A31BA2
:10150000B90189819A81892B51F089819A81AB81B6
:10151000BC81AA27BB27880E991EAA1EBB1E672B5B
:1015200041F0DA01C901AA27BB27480E591E6A1EDD
:101530007B1EACE3B0E0A50194010E94981B4B0117
:101540005C01C801B7012CE330E040E050E00E94AC
:10155000A31B860E971EA81EB91EA0E1BEE0A30124
:1015600092010E94981BDC01CB01880D991DAA1DD8
:10157000BB1D80935A0390935B03A0935C03B093CD
:101580005D0380935E0390935F03A0936003B09329
:101590006103109263030F900F900F900F90DF91F3
:1015A000CF911F910F91FF90EF90BF90AF909F90C0
:1015B0008F907F906F905F904F9008954F925F92C1
:1015C0006F927F92AF92BF92CF92DF92EF92FF9293
:1015D0000F931F93CF93DF936817790740F47C0133
:1015E000E626F7266E257F25CB018E259F2524171D
:1015F000350730F44227532724273527422753271E
:101600007C0180EFE816F10418F0EFEEEE2EF12CDD
:101610006B01603F710518F09FEEC92ED12CEA01D5
:101620004034514010F0CFE3D1E059012034314033
:1016300020F08FE3A82EBB24B394D6011196AE19E7
:10164000BF0995012F5F3F4F2C1B3D0B0E94C51B0F
:101650002B013C018AE20E94D103C7010E94B8031A
:10166000C6010E94B8038BE20E94D103CE010E9402
:10167000B803C5010E94B8038CE20E94D103569AB8
:101680005E9A559A5D98C12CD12C7601C414D5046C
:10169000E604F70461F0812F0E94B103802F0E94BD
:1016A000B1038FEFC81AD80AE80AF80AEFCF559AA3
:1016B0005D9ADF91CF911F910F91FF90EF90DF9096
:1016C000CF90BF90AF907F906F905F904F900895B4
:1016D0002F923F924F925F926F927F928F929F9242
:1016E000AF92BF92CF92DF92EF92FF920F931F9330
:1016F000CF93DF9300D000D000D0CDB7DEB74B83BF
:101700005C835901480190EE980F903608F08FE302
:1017100028E0829FC00111246D837E83E12CF12C8F
:10172000DC01BA95BA83A983E981FA81EE0DFF1D28
:10173000EA57FF4FE4914D805E804A0C5B1C4B8161
:101740005C81C12CD12C2E2E312C3A016A0C7B1CD1
:10175000C1010C2C02C0959587950A94E2F780FF91
:1017600007C084019301B2018D819E810E94DE0A2F
:10177000BFEFCB1ADB0AA301E8E0CE16D10429F7AC
:10178000FFEFEF1AFF0A5E824D8228E0E216F104B5
:1017900059F626960FB6F894DEBF0FBECDBFDF9187
:1017A000CF911F910F91FF90EF90DF90CF90BF905E
:1017B000AF909F908F907F906F905F904F903F90F1
:1017C0002F9008956F927F928F929F92AF92BF92C7
:1017D000CF92DF92EF92FF920F931F93CF93DF93FD
:1017E000EB015A016901480126E02C9D30012D9D35
:1017F000700C11247C01F70181917F01882361F035
:1018000084019601A501BE010E94680BCF3ED1055F
:1018100090F7C60DD71DEFCFDF91CF911F910F919C
:10182000FF90EF90DF90CF90BF90AF909F908F9000
:101830007F906F900895AF92BF92CF92DF92EF9218
:10184000FF920F931F93CF93DF93EC017B016A010B
:10185000590198010E94A608B7016A0D7B1D9801E5
:10186000A601CE010E94A6089801A501B701CE01EC
:101870000E946F089801A501B701CE018C0D9D1D36
:10188000DF91CF911F910F91FF90EF90DF90CF905C
:10189000BF90AF900C946F08CF93DF938AE20E94C1
:1018A000D10380E090E00E94B8038FEE90E00E94A8
:1018B000B8038BE20E94D10380E090E00E94B8035D
:1018C0008FE391E00E94B8038CE20E94D103569A04
:1018D0005E9A559A5D98C0E0D6E980E00E94B10317
:1018E00080E00E94B10380E00E94B10380E00E948A
:1018F000B103219791F7559A5D9ADF91CF910895A1
:10190000009769F0FC0101900020E9F73197AF01E1
:10191000481B590BBC0180E892E00C94260D80E036
:1019200090E00895FC01848DDF01A80FB11DA35A3A
:10193000BF4F2C91848D90E001968F739927848FEF
:10194000A689B7892C93A089B1898C9180648C93E6
:10195000938D848D981306C00288F389E02D8081D1
:101960008F7D80830895EF92FF920F931F93CF9303
:10197000DF93EC0181E0888F9B8D8C8D981305C0DF
:10198000E889F989808185FD24C0F62E0B8D10E051
:101990000F5F1F4F0F731127E02E8C8DE8120CC0C4
:1019A0000FB607FCFACFE889F989808185FFF5CF6A
:1019B000CE010E94920CF1CF8B8DFE01E80FF11D3C
:1019C000E35AFF4FF0820B8FEA89FB8980818062A6
:1019D00007C0EE89FF896083E889F9898081806486
:1019E000808381E090E0DF91CF911F910F91FF9074
:1019F000EF900895CF93DF93EC01888D8823C9F091
:101A0000EA89FB89808185FD05C0A889B9898C9107
:101A100086FD0FC00FB607FCF5CF808185FFF2CFA2
:101A2000A889B9898C9185FFEDCFCE010E94920CD7
:101A3000E7CFDF91CF91089580E090E0892B29F0E6
:101A40000E94070281110C9400000895CF92DF924A
:101A5000EF92FF920F931F93CF93DF936C017A0164
:101A60008B01C0E0D0E0CE15DF0589F0D8016D9183
:101A70008D01D601ED91FC910190F081E02DC60120
:101A80000995892B11F47E0102C02196ECCFC70184
:101A9000DF91CF911F910F91FF90EF90DF90CF904A
:101AA00008950E94BD18CF93DF93CDB7DEB7E297BC
:101AB0000FB6F894DEBF0FBECDBF789484B58260B8
:101AC00084BD84B5816084BD85B5826085BD85B5E2
:101AD000816085BD80916E00816080936E00109260
:101AE00081008091810082608093810080918100DB
:101AF000816080938100809180008160809380006C
:101B00008091B10084608093B1008091B0008160C9
:101B10008093B00080917A00846080937A008091F5
:101B20007A00826080937A0080917A00816080934D
:101B30007A0080917A00806880937A001092C100C8
:101B400061E082E00E94B50261E083E00E94B5029C
:101B500060E082E00E94690260E083E00E94690226
:101B6000579A5F9A1FB7F89480915C02811127C041
:101B7000EEEAF3E08491EAE9F3E09491E82FF0E0F3
:101B8000EE0FFF1FE859FF4FA591B491EC91E923A7
:101B900021F461E08AE00E94690261E08AE00E942B
:101BA000B5028CB580618CBD8CB580648CBD61E064
:101BB0008DE00E94B50261E08BE00E94B502809149
:101BC0005C028F5F80935C021FBF559A5D9A569AA4
:101BD0005E9A13E003E951E4352E3E0188E2680E77
:101BE000711C63E0262E260C1AA20BA33CA2DE0178
:101BF00092967D01630141E1542E4424439489ED82
:101C00000E94D103852D0E94C803569A5E98559A6A
:101C10005D9883ED0E94B103569A5E9A80E00E941F
:101C2000B103559A5D9AF60181936F01D7019D9199
:101C30007D018913412C5394B4E15B12E0CF411034
:101C400033C08CE691E00E94800C2301F2014191A7
:101C50002F0150E060E070E019A2FE01B196DB01B7
:101C6000CA018F709927AA27BB2734E0769567951C
:101C7000579547953A95D1F731978A309105A10547
:101C8000B10510F4805D01C0895C80834115510568
:101C90006105710521F7CF010E94800C2410D6CF79
:101CA00087EA91E00E94800C115009F09DCF64EF0B
:101CB00071E080E090E00E942D0381E00E94D1035A
:101CC00068EC70E080E090E00E942D038FEC0E94B1
:101CD000D10380E00E94C8038BE80E94C80380E320
:101CE0000E94C8038DEE0E94D10387E60E94C803BC
:101CF00083E00E94C80382E10E94C80381E80E9439
:101D0000C80388EE0E94D10385E80E94C80380E1E1
:101D10000E94C8038AE70E94C8038BEC0E94D1038B
:101D200089E30E94C8038CE20E94C80380E00E94FD
:101D3000C80384E30E94C80382E00E94C80387EFBF
:101D40000E94D10380E20E94C8038AEE0E94D10360
:101D500080E00E94C80380E00E94C80380EC0E94DB
:101D6000D1038BE10E94C80381EC0E94D10380E182
:101D70000E94C80385EC0E94D1038FE30E94C80330
:101D80008CE30E94C80387EC0E94D10387EB0E947A
:101D9000C80386E30E94D10388E00E94C8038AE357
:101DA0000E94D10385E50E94C80381EB0E94D10304
:101DB00080E00E94C8038BE10E94C80386EB0E946A
:101DC000D1038AE00E94C80382EA0E94C80382EF1E
:101DD0000E94D10380E00E94C80386E20E94D103E2
:101DE00081E00E94C80380EE0E94D1038FE00E9430
:101DF000C8038AE20E94C80388E20E94C80388E000
:101E00000E94C8038EE00E94C80388E00E94C803B5
:101E100084E50E94C80389EA0E94C80383E40E9403
:101E2000C8038AE00E94C8038FE00E94C80380E0D4
:101E30000E94C80380E00E94C80380E00E94C8039B
:101E400080E00E94C80381EE0E94D10380E00E94DE
:101E5000C80385E10E94C80387E10E94C80387E0A8
:101E60000E94C80381E10E94C80386E00E94C80363
:101E70008BE20E94C80386E50E94C8038CE30E949F
:101E8000C80385E00E94C80380E10E94C8038FE078
:101E90000E94C8038FE30E94C8038FE30E94C80317
:101EA0008FE00E94C80381E10E94D10368E770E0DF
:101EB00080E090E00E942D0389E20E94D1030E94FD
:101EC0004C0C80E58CBD772473947DBC0E94840506
:101ED000E0914B0286E0E89FF0011124E85FFE4F9D
:101EE000E480F58000E010E02281338140E050E0A2
:101EF0006081718180E090E00E94560A70926403D4
:101F000082E493E00E94B4070E9447068DE193E0CB
:101F10000E94B407109264030E9408036093560362
:101F200070935703809358039093590382E493E08E
:101F30000E94B40780915B02811155C080915A02C2
:101F4000811151C08091590281114DC08091690267
:101F5000811149C000E010E020E431E040E050E0B1
:101F600060EF70E080E090E00E94DE0A812C912C0E
:101F7000E5E0AE2EB12CFAEACF2EF1E0DF2EAFE194
:101F8000EA2EF12C00E018EF27E330E040EA50E0C1
:101F900066E470E088E290E00E94FB04B3E0AB2EC0
:101FA000B12C80EBC82E81E0D82E28E230E044E648
:101FB00050E065EA70E086E490E00E94FB0492E065
:101FC000A92EB12C26EBC22E21E0D22E2EE130E03C
:101FD0004EE650E06EE071E088E790E00E94FB047E
:101FE00091E09093590280916902882309F4B5C168
:101FF0000E94E1082AA33BA34CA35DA36EA37FA389
:10200000AEA1BFA1B8ABAFA72AA13BA1C901330FB5
:10201000AA0BBB0B9C01AD01285E31094109510996
:10202000A0EFB0E00E94981B2CE036E040E050E0CA
:102030000E94791B2BA73CA74DA75EA72CA13DA111
:10204000C901330FAA0BBB0B9C01AD01265A310904
:1020500041095109A0E4B1E00E94981B2CE736E049
:1020600040E050E00E94791B29013A01EFA5F8A950
:102070003B970CF4C3C02BA43CA4F9EC2F1A3108F5
:102080008DE12816310408F050C0C901899787975F
:1020900008F04BC080914B028F5F8E3018F4809314
:1020A0004B0203C09DE090934B0220914B02809124
:1020B000030190E04EE050E0421B510948175907D8
:1020C00024F48EE0821B809303010E94AC040E94E2
:1020D000140430EE832E37E0932E42E0A42EB12C70
:1020E0005FEBC52E51E0D52E6FE1E62EF12C00E01E
:1020F00010E028E230E045E550E06DEC70E086E964
:1021000090E00E94FB0475ECC72E71E0D72E28E208
:1021100030E045E550E069E071E086E990E00E943A
:10212000FB041092010110920001ABA5BCA51B9706
:10213000BAABA9AB5D9708F419C3FDE12F163104C2
:1021400030F4C20184579109879708F48EC48BA597
:102150009CA5875991098435910508F040C0C201BA
:102160008E5C9109879708F406C5C2018A50914098
:102170008797A8F50E9484050E94AC040E9414046D
:10218000E1E0E0930001AFE18A2E912CB2E0AB2EAA
:10219000B12C15ECC12E11E0D12E0FE1E02EF12C67
:1021A00000E010E028E230E045E550E069E071E051
:1021B00086E990E00E94FB04812C88EF982E9FEB2B
:1021C000C92E91E0D92E28E230E045E550E06DECD3
:1021D00070E086E990E00E94FB040E9445058BA513
:1021E0009CA506978F34910548F4C2018A5091400E
:1021F000879720F410926902109259028091010190
:10220000811160C010914B0280E090E00E941204A6
:10221000181358C01091030181E090E00E9412044D
:10222000181350C082E090E00E94120420914A02EC
:1022300030E090E02817390709F044C083E090E0CF
:102240000E9412042091020130E090E02817390723
:10225000C9F5809100018111C4C2812CF8EF9F2E35
:1022600092E0A92EB12C25ECC22E21E0D22E3FE126
:10227000E32EF12C00E010E028E230E045E550E0EC
:1022800069E071E086E990E00E94FB04812C48EF50
:10229000942E52E0A52EB12C6FEBC62E61E0D62E07
:1022A0007FE1E72EF12C00E010E028E230E045E588
:1022B00050E06DEC70E086E990E00E94FB04F1E0F4
:1022C000F09301018FA598A90B970CF440C08BA542
:1022D0009CA54A978C97D8F593ED491A5108ADE122
:1022E0004A165104A0F580910201B1E08B2780933A
:1022F00002010E944505F0EE8F2EF7E09F2EA2E02E
:10230000AA2EB12CBFEBCB2EB1E0DB2E1FE1E12ECC
:10231000F12C00E010E028E230E045E550E06DEC03
:1023200070E086E990E00E94FB0485ECC82E81E015
:10233000D82E28E230E045E550E069E071E086E91A
:1023400090E00E94FB0410920101109200016EE5E2
:1023500071E080E090E00E942D0380915902882373
:1023600009F49CC00E94E10829833A834B835C8373
:102370006D837E8309811A812B813C818D819E81B1
:102380000B970CF48BC0C901330FAA0BBB0B9C013C
:10239000AD01265A310941095109A0E4B1E00E947A
:1023A000981B2CE736E040E050E00E94791B2BA7F9
:1023B0003CA74DA75EA7C801110FAA0BBB0B9C0140
:1023C000AD01285E310941095109A0EFB0E00E943A
:1023D000981B2CE036E040E050E00E94791B290178
:1023E0003A01C90189978F39910548F48BA59CA5BD
:1023F000875491098435910510F40E94A406C20106
:102400008754910983369105D8F58BA59CA5865AEA
:1024100091098797A8F500E010E020E431E040E062
:1024200050E060EF70E080E090E00E94DE0A812CD6
:10243000912C62E0A62EB12C7CECC72E71E0D72E39
:10244000E0EEEE2EFF24FA940FE110E028E230E0F7
:1024500048EC50E066E970E084E190E00E94FB0403
:1024600061E082E00E94690268E873E180E090E048
:102470000E942D0360E082E00E94690210925902DE
:10248000B9E74B1A5108EDE64E16510438F48BA506
:102490009CA58F5091404D9708F4A7C180915B0295
:1024A000882309F4BDC061E083E00E94690282E4F0
:1024B00093E00E94B40780916503882309F45DC00E
:1024C00000E018EF22E030E04AE050E06AE070E01F
:1024D00084EE91E00E94E20B26E930E042E350E016
:1024E00060EF70E080E090E00E94DE0A40905A03C6
:1024F00050905B0360905C0370905D03C301B20178
:102500002CE330E040E050E00E94A31B9F938F93A8
:102510007F936F93CA01B9012CE330E040E050E0B3
:102520000E94A31B9F938F937F936F93C301B2016C
:1025300020E13EE040E050E00E94A31B5F934F93F8
:102540003F932F93AFE0B2E0BF93AF93ACE4B2E020
:10255000BF93AF930E94C21800E010E024E030E087
:1025600046E450E06AE070E08CE492E00E94E20B06
:102570000FB6F894DEBF0FBECDBF20E030E040E0E4
:1025800050E060E070E082E493E00E945C07882302
:1025900009F444C010925B020E944C0C60E083E09E
:1025A0000E946902809102018823B1F010923F03DA
:1025B0000E940803609331037093320380933303C6
:1025C000909334038DE193E00E94B40791E09093DF
:1025D0005A020E94A50522C000E018EF23E030E077
:1025E00046E450E06AE070E081E292E00E94E20B93
:1025F00068E873E180E090E00E942D0310925A0297
:10260000809158028F5F809358029091030189173F
:1026100018F40E94A40602C0109258020E94DA0523
:1026200080915B0281119FC080915A02882309F436
:102630009AC08DE193E00E94B40780914003882303
:1026400009F45DC000E018EF22E030E04AE050E01D
:102650006AE070E080E092E00E94E20B26E930E060
:1026600042E350E060EF70E080E090E00E94DE0A1C
:1026700040903503509036036090370370903803D4
:10268000C301B2012CE330E040E050E00E94A31B04
:102690009F938F937F936F93CA01B9012CE330E02E
:1026A00040E050E00E94A31B9F938F937F936F9312
:1026B000C301B20120E13EE040E050E00E94A31BD4
:1026C0005F934F933F932F93AFE0B2E0BF93AF93ED
:1026D000ADE5B2E0BF93AF930E94C21800E010E0F6
:1026E00024E030E046E450E06AE070E08DE592E0FE
:1026F0000E94E20B0FB6F894DEBF0FBECDBF20E004
:1027000030E040E050E060E070E08DE193E00E9456
:102710005C07882331F10E944C0C00E018EF23E0A5
:1027200030E046E450E06AE070E081E292E00E942E
:10273000E20B68E873E180E090E00E942D030E94C4
:102740004C0C10925A02809158028F5F809358026D
:1027500090910301891718F40E94A40602C01092F8
:1027600058020E94DA050E941C0DE4CBC201899731
:10277000879708F044C280914B02882319F081505A
:1027800080934B020E94AC0410EE812E17E0912E34
:1027900002E0A02EB12C8FEBC82E81E0D82E9FE155
:1027A000E92EF12C00E010E028E230E045E550E0B1
:1027B0006DEC70E086E990E00E94FB0425ECC22EEF
:1027C00021E0D22E28E230E045E550E069E071E0FA
:1027D00086E990E00E94FB04109201011092000132
:1027E0000EC2EFE18E2E912C3BCD00E018EF20E4DD
:1027F00031E040E050E060EF70E080E090E00E9467
:10280000DE0A00EE17E024E530E040EF50E060E043
:1028100070E080E090E00E941B0C0FE110E022E0ED
:1028200030E04AE050E069E170E08CED91E00E9418
:10283000E20B812C88EF982E93E0A92EB12C2DEE7F
:10284000C22E21E0D22E3FE1E32EF12C00E010E079
:1028500028E230E04EE150E068E270E088EC90E081
:102860000E94FB040E94AC044FEEC42E41E0D42E23
:1028700028E230E04EE150E068E270E08AE090E06B
:102880000E94FB0400EE17E02AE530E040EF50E044
:1028900065E570E080E090E00E941B0C0FE110E025
:1028A00022E030E04AE550E069E170E081EF91E03C
:1028B0000E94E20B00E010E028E230E04EE150E040
:1028C00063E770E08AE090E00E94FB040E94140439
:1028D0005DEEC52E51E0D52E28E230E04EE150E00D
:1028E00063E770E088EC90E00E94FB0400E018EFE2
:1028F00024E030E045ED50E068E270E08DE20E94B7
:10290000680B0FE110E022E030E04EEB50E065E0B4
:1029100070E080E092E00E94E20B0E94450570901A
:102920004B0280E090E00E94120478121EC01091C9
:10293000030181E090E00E941204181316C082E0A7
:1029400090E00E94120420914A0230E090E02817A3
:10295000390759F483E090E00E94120420910201AB
:1029600030E090E02817390729F0F0EE8F2EF7E0DD
:102970009F2E03C0812CE8EF9E2E52E0A52EB12C95
:102980006FEBC62E61E0D62E7FE1E72EF12C00E042
:1029900010E028E230E045E550E06DEC70E086E9BB
:1029A00090E00E94FB0480E090E00E941204781204
:1029B0001EC01091030181E090E00E9412041813E0
:1029C00016C082E090E00E94120420914A0230E09A
:1029D00090E02817390759F483E090E00E94120430
:1029E0002091020130E090E02817390729F040EEED
:1029F000842E47E0942E03C0812C38EF932E82E082
:102A0000A82EB12C95ECC92E91E0D92E2FE1E22E03
:102A1000F12C00E010E028E230E045E550E069E00C
:102A200071E086E990E00E94FB04A0EE8A2EA7E008
:102A30009A2EB3E0AB2EB12C1BE0C12E12E0D12EAA
:102A40000FE1E02EF12C00E010E028E230E040E55C
:102A500050E069E071E085E090E00E94FB04109294
:102A60005902E1E0E093690219CD809103018E30B3
:102A700018F48F5F8093030180914B022091030132
:102A800030E04EE050E0481B5109421753072CF448
:102A9000882319F0815080934B020E94AC040E945D
:102AA000140470EE872E77E0972EE2E0AE2EB12C64
:102AB000FFEBCF2EF1E0DF2EAFE1EA2EF12C00E0AC
:102AC00010E028E230E045E550E06DEC70E086E98A
:102AD00090E00E94FB04B5ECCB2EB1E0DB2E28E2A7
:102AE00030E045E550E069E071E086E990E00E9461
:102AF000FB041092010110920001A9A9BAA95D97E7
:102B000008F025CB80910301815019F080930301D7
:102B100003C0B1E0B09303010E94140420EE822EA2
:102B200027E0922E32E0A32EB12C4FEBC42E41E0D1
:102B3000D42E5FE1E52EF12C00E010E028E230E039
:102B400045E550E06DEC70E086E990E00E94FB0402
:102B500065ECC62E61E0D62E28E230E045E550E077
:102B600069E071E086E990E00E94FB0410920101A7
:102B700010920001ECCA10914B0280E090E00E949C
:102B8000120418131EC00091030181E090E00E941E
:102B90001204081316C082E090E00E9412042091F3
:102BA0004A0230E090E02817390759F483E090E0BA
:102BB0000E9412042091020130E090E028173907AA
:102BC000C9F0612F80E090E00E946B1B60910301CF
:102BD00081E090E00E946B1B60914A0282E090E0ED
:102BE0000E946B1B6091020183E090E00E946B1BCE
:102BF000109200011092690210925902B6CA8DE13A
:102C00002816310408F49DCAC20184579109879798
:102C100008F478CF9CCA4F925F926F927F928F9206
:102C20009F92AF92BF92CF92DF92EF92FF92CF939B
:102C3000DF93E0E8F2E01382128288EE93E0A0E0F6
:102C4000B0E084839583A683B78380E691E0918387
:102C5000808385EC90E09587848784EC90E097876B
:102C6000868780EC90E0918B808B81EC90E0938B59
:102C7000828B82EC90E0958B848B86EC90E0978B36
:102C8000868B118E128E138E148EE7E6F3E080E1B0
:102C900080838FE082838EE0818381E18383C2E43D
:102CA000D3E01CA282E1482E512C612C712C488269
:102CB00059826A827B829CE0892E912CA12CB12CB6
:102CC0008C829D82AE82BF822FE0C22ED12CE12C5D
:102CD000F12CC886D986EA86FB860E9408036C8B95
:102CE0007D8B8E8B9F8B188E198E1A8E1B8E18A241
:102CF00019A21AA21BA2CDE1D3E01CA248825982DC
:102D00006A827B828C829D82AE82BF82C886D9868F
:102D1000EA86FB860E9408036C8B7D8B8E8B9F8BD3
:102D2000188E198E1A8E1B8E18A219A21AA21BA217
:102D3000DF91CF91FF90EF90DF90CF90BF90AF9059
:102D40009F908F907F906F905F904F900895EE0FBF
:102D5000FF1F0590F491E02D09945058BB27AA2736
:102D60000E94C5160C9416180E94081838F00E948C
:102D70000F1820F039F49F3F19F426F40C9405182D
:102D80000EF4E095E7FB0C94FF17E92F0E9427183B
:102D900058F3BA17620773078407950720F079F490
:102DA000A6F50C9449180EF4E0950B2EBA2FA02D21
:102DB0000B01B90190010C01CA01A0011124FF27E8
:102DC000591B99F0593F50F4503E68F11A16F040E3
:102DD000A22F232F342F4427585FF3CF46953795E2
:102DE0002795A795F0405395C9F77EF41F16BA0BA7
:102DF000620B730B840BBAF09150A1F0FF0FBB1F55
:102E0000661F771F881FC2F70EC0BA0F621F731F9D
:102E1000841F48F4879577956795B795F7959E3FFA
:102E200008F0B0CF9395880F08F09927EE0F97958B
:102E3000879508950E942E170C9416180E940F185B
:102E400058F00E94081840F029F45F3F29F00C94D4
:102E5000FF1751110C944A180C9405180E9427185A
:102E600068F39923B1F3552391F3951B550BBB27B9
:102E7000AA2762177307840738F09F5F5F4F220FFE
:102E8000331F441FAA1FA9F335D00E2E3AF0E0E8F5
:102E900032D091505040E695001CCAF72BD0FE2F3F
:102EA00029D0660F771F881FBB1F261737074807D3
:102EB000AB07B0E809F0BB0B802DBF01FF2793588B
:102EC0005F4F3AF09E3F510578F00C94FF170C9439
:102ED0004A185F3FE4F3983ED4F38695779567955B
:102EE000B795F7959F5FC9F7880F911D96958795C0
:102EF00097F90895E1E0660F771F881FBB1F6217DF
:102F000073078407BA0720F0621B730B840BBA0B9C
:102F1000EE1F88F7E09508950E9493176894B11109
:102F20000C944A1808950E942F1888F09F5798F023
:102F3000B92F9927B751B0F0E1F0660F771F881FBE
:102F4000991F1AF0BA95C9F714C0B13091F00E94D8
:102F50004918B1E008950C944918672F782F8827F5
:102F6000B85F39F0B93FCCF3869577956795B395FF
:102F7000D9F73EF490958095709561957F4F8F4F6E
:102F80009F4F0895E89409C097FB3EF49095809573
:102F9000709561957F4F8F4F9F4F9923A9F0F92F1F
:102FA00096E9BB279395F695879577956795B7959D
:102FB000F111F8CFFAF4BB0F11F460FF1BC06F5F83
:102FC0007F4F8F4F9F4F16C0882311F096E911C095
:102FD000772321F09EE8872F762F05C0662371F0B6
:102FE00096E8862F70E060E02AF09A95660F771FCA
:102FF000881FDAF7880F9695879597F9089597F9BE
:103000009F6780E870E060E008959FEF80EC08958E
:1030100000240A94161617061806090608950024B7
:103020000A9412161306140605060895092E039431
:10303000000C11F4882352F0BB0F40F4BF2B11F4A5
:1030400060FF04C06F5F7F4F8F4F9F4F089557FD04
:103050009058440F551F59F05F3F71F04795880F06
:1030600097FB991F61F09F3F79F08795089512169D
:1030700013061406551FF2CF4695F1DF08C0161649
:1030800017061806991FF1CF8695710561050894FA
:103090000895E894BB2766277727CB0197F9089511
:1030A0000E9463180C9416180E94081838F00E94A9
:1030B0000F1820F0952311F00C94FF170C940518AD
:1030C00011240C944A180E94271870F3959FC1F39D
:1030D000950F50E0551F629FF001729FBB27F00DC6
:1030E000B11D639FAA27F00DB11DAA1F649F66271B
:1030F000B00DA11D661F829F2227B00DA11D621F6A
:10310000739FB00DA11D621F839FA00D611D221F23
:10311000749F3327A00D611D231F849F600D211D07
:10312000822F762F6A2F11249F5750409AF0F1F08A
:1031300088234AF0EE0FFF1FBB1F661F771F881FF3
:1031400091505040A9F79E3F510580F00C94FF1715
:103150000C944A185F3FE4F3983ED4F38695779534
:103160006795B795F795E7959F5FC1F7FE2B880F99
:10317000911D9695879597F9089581E090E0F894D0
:103180000C940B1CAEE0B0E0E8ECF8E10C94E21B10
:103190000D891E8986E08C831A8309838FEF9FE750
:1031A0009E838D83AE01475E5F4F6F89788DCE0120
:1031B00001960E94E5182F813885F801E20FF31F70
:1031C00010822E96E4E00C94FE1BACE0B0E0EBEE37
:1031D000F8E10C94D41B7C016B018A01FC0117827D
:1031E0001682838181FFBDC1CE0101964C01F7019A
:1031F0009381F60193FD859193FF81916F0188235F
:1032000009F4ABC1853239F493FD859193FF819127
:103210006F01853229F4B70190E00E94CD1AE7CF03
:10322000512C312C20E02032A0F48B3269F030F4A4
:10323000803259F0833269F420612CC08D3239F02C
:10324000803339F4216026C02260246023C02860C6
:1032500021C027FD27C030ED380F3A3078F426FF23
:1032600006C0FAE05F9E300D1124532E13C08AE091
:10327000389E300D1124332E20620CC08E3221F482
:1032800026FD6BC1206406C08C3611F4206802C094
:10329000883641F4F60193FD859193FF81916F018A
:1032A0008111C1CF982F9F7D9554933028F40C5FE6
:1032B0001F4FFFE3F9830DC0833631F0833771F080
:1032C000833509F05BC022C0F801808189830E5FDD
:1032D0001F4F44244394512C540115C03801F2E08F
:1032E0006F0E711CF801A080B18026FF03C0652D10
:1032F00070E002C06FEF7FEFC5012C870E94C21AF9
:103300002C0183012C852F77222E17C03801F2E083
:103310006F0E711CF801A080B18026FF03C0652DDF
:1033200070E002C06FEF7FEFC5012C870E94B71AD3
:103330002C012C852068222E830123FC1BC0832DA9
:1033400090E048165906B0F4B70180E290E00E9480
:10335000CD1A3A94F4CFF50127FC859127FE81918F
:103360005F01B70190E00E94CD1A31103A94F1E06C
:103370004F1A51084114510471F7E5C0843611F019
:10338000893639F5F80127FF07C060817181828194
:1033900093810C5F1F4F08C060817181072E000C64
:1033A000880B990B0E5F1F4F2F76722E97FF09C067
:1033B00090958095709561957F4F8F4F9F4F2068B6
:1033C000722E2AE030E0A4010E94051BA82EA81846
:1033D00044C0853729F42F7EB22E2AE030E025C084
:1033E000F22FF97FBF2E8F36C1F018F4883579F0AF
:1033F000B4C0803719F0883721F0AFC02F2F20617B
:10340000B22EB4FE0DC08B2D8460B82E09C024FFEF
:103410000AC09F2F9660B92E06C028E030E005C094
:1034200020E130E002C020E132E0F801B7FE07C041
:1034300060817181828193810C5F1F4F06C0608122
:10344000718180E090E00E5F1F4FA4010E94051B78
:10345000A82EA818FB2DFF777F2E76FE0BC0372DE8
:103460003E7FA51450F474FE0AC072FC08C0372DCC
:103470003E7E05C0BA2C372D03C0BA2C01C0B52C36
:1034800034FF0DC0FE01EA0DF11D8081803311F47F
:10349000397E09C032FF06C0B394B39404C0832FB1
:1034A000867809F0B39433FD13C030FF06C05A2C60
:1034B000B31418F4530C5B18B32CB31468F4B701AD
:1034C00080E290E03C870E94CD1AB3943C85F5CF12
:1034D000B31410F43B1801C0312C34FF12C0B701F3
:1034E00080E390E03C870E94CD1A3C8532FF17C0F4
:1034F00031FD03C088E790E002C088E590E0B701A5
:103500000CC0832F867859F031FF02C08BE201C0D6
:1035100080E237FD8DE2B70190E00E94CD1AA5143C
:1035200038F4B70180E390E00E94CD1A5A94F7CFA7
:10353000AA94F401EA0DF11D8081B70190E00E9488
:10354000CD1AA110F5CF332009F451CEB70180E296
:1035500090E00E94CD1A3A94F6CFF70186819781C8
:1035600002C08FEF9FEF2C96E2E10C94F01BFC0160
:103570000590615070400110D8F7809590958E0F9E
:103580009F1F0895FC016150704001900110D8F711
:10359000809590958E0F9F1F08950F931F93CF9343
:1035A000DF93FB01238121FD03C08FEF9FEF28C034
:1035B00022FF16C046815781248135814217530767
:1035C00044F4A081B1819D012F5F3F4F318320835F
:1035D0008C93268137812F5F3F4F3783268310C01E
:1035E000EB01092F182F0084F185E02D0995892B17
:1035F000E1F68E819F8101969F838E83812F902F8C
:10360000DF91CF911F910F910895FA01AA272830D9
:1036100051F1203181F1E8946F936E7F6E5F7F4F9F
:103620008F4F9F4FAF4FB1E03ED0B4E03CD0670F1B
:10363000781F891F9A1FA11D680F791F8A1F911D6E
:10364000A11D6A0F711D811D911DA11D20D009F4BE
:1036500068943F912AE0269F11243019305D319300
:10366000DEF6CF010895462F4770405D4193B3E0E9
:103670000FD0C9F7F6CF462F4F70405D4A3318F090
:10368000495D31FD4052419302D0A9F7EACFB4E041
:10369000A6959795879577956795BA95C9F70097F9
:1036A0006105710508959B01AC010A2E069457959A
:1036B000479537952795BA95C9F7620F731F841FF1
:1036C000951FA01D0895F999FECF92BD81BDF89A6E
:1036D000992780B50895262FF999FECF1FBA92BD7C
:1036E00081BD20BD0FB6F894FA9AF99A0FBE0196E3
:1036F0000895052E97FB1EF400940E94901B57FD21
:1037000007D00E94A31B07FC03D04EF40C94901B1F
:1037100050954095309521953F4F4F4F5F4F0895FD
:1037200090958095709561957F4F8F4F9F4F08952D
:103730000E94C51BA59F900DB49F900DA49F800D66
:10374000911D11240895A1E21A2EAA1BBB1BFD0195
:103750000DC0AA1FBB1FEE1FFF1FA217B307E40770
:10376000F50720F0A21BB30BE40BF50B661F771FC8
:10377000881F991F1A9469F76095709580959095A8
:103780009B01AC01BD01CF010895A29FB001B39F81
:10379000C001A39F700D811D1124911DB29F700D5A
:1037A000811D1124911D08952F923F924F925F9297
:1037B0006F927F928F929F92AF92BF92CF92DF9241
:1037C000EF92FF920F931F93CF93DF93CDB7DEB7A6
:1037D000CA1BDB0B0FB6F894DEBF0FBECDBF09943A
:1037E0002A88398848885F846E847D848C849B8491
:1037F000AA84B984C884DF80EE80FD800C811B819F
:10380000AA81B981CE0FD11D0FB6F894DEBF0FBECD
:0A381000CDBFED010895F894FFCF3D
:10381A000101010401000000000000000100000095
:10382A000000020000000000040000000000080080
:10383A00000000000F00000000001E000000010050
:10384A000000000002000000000004000000000068
:10385A000800000000000F00000000001E00000029
:10386A00010000000000020000000000000000004B
:10387A00B30C260D630841085508FA0C52656164B9
:10388A0020544654204944206661696C65642C20A2
:10389A0049442073686F756C642062652030783003
:1038AA00393334312C206275742072656164204981
:1038BA0044203D203078000D0A0053746172740070
:1038CA00466F6375730053657474696E677300534A
:1038DA00746F726500526563616C6C00466F637544
:1038EA0073696E672043616D65726100496E697420
:1038FA0069616C204578706F73757265002B002DB5
:10390A00004578706F7375726520436F756E740029
:10391A004461726B204672616D65005573650025BE
:10392A0030326C753A2530326C753A2530326C7506
:10393A0000536176696E6720496D616765002530BD
:10394A0032753A253032753A25303275006F66661F
:0A395A00006F6E0041424F5254000E
:00000001FF
